:020000040800F2
:10000000F8060024AD0200082B280008E3230008AE
:1000100029280008D5030008C731000800000000A7
:10002000000000000000000000000000712A00082D
:10003000D7030008000000002D280008732A0008DC
:10004000C7020008C7020008C7020008C70200086C
:10005000C7020008C7020008C7020008C70200085C
:10006000C7020008C7020008C7020008C70200084C
:10007000C7020008C7020008C7020008C70200083C
:10008000C7020008C7020008C7020008C70200082C
:10009000C7020008C7020008C7020008C70200081C
:1000A000C7020008C7020008C7020008C70200080C
:1000B000C7020008C7020008C7020008C7020008FC
:1000C000C7020008C7020008C7020008C7020008EC
:1000D000C7020008C7020008C7020008C7020008DC
:1000E000C7020008C702000800000000C70200089D
:1000F000C7020008C7020008C7020008C7020008BC
:10010000C7020008C7020008C7020008C7020008AB
:10011000C7020008C7020008C7020008C70200089B
:10012000C7020008C7020008C7020008C70200088B
:10013000C7020008C7020008C7020008C70200087B
:1001400000000000000000000000000000000000AF
:10015000C7020008C7020008C7020008C70200085B
:10016000C7020008C7020008C7020008C70200084B
:10017000C7020008C7020008C7020008C70200083B
:10018000C7020008C7020008C7020008C70200082B
:10019000C7020008C7020008C7020008C70200081B
:1001A000C7020008C7020008C7020008C70200080B
:1001B000C7020008C7020008C7020008C7020008FB
:1001C000C7020008C7020008C7020008C7020008EB
:1001D000C7020008C7020008C7020008C7020008DB
:1001E000C7020008C7020008C7020008C7020008CB
:1001F000C7020008C7020008C7020008C7020008BB
:10020000C7020008C7020008C7020008C7020008AA
:10021000C7020008C7020008C7020008C70200089A
:10022000C7020008C7020008C7020008000000005B
:10023000C7020008C702000800000000C70200084B
:10024000C7020008C7020008C7020008C70200086A
:10025000C7020008C7020008C7020008C70200085A
:10026000C7020008C7020008C7020008C70200084A
:10027000C7020008C7020008C7020008000000000B
:10028000C7020008C7020008C702000800000000FB
:1002900000000000C7020008DFF80CD000F088F86A
:1002A00000480047A5360008F806002406488047A5
:1002B00006480047FEE7FEE7FEE7FEE7FEE7FEE74B
:1002C000FEE7FEE7FEE7FEE7092B000899020008BB
:1002D0002DE9F05F0546002092469B46884606467B
:1002E000814640241BE0284641464746224600F00E
:1002F0004EF853465A46C01A914110D3114618463B
:10030000224600F035F82D1A67EB01084F462246C9
:100310000120002100F02CF817EB00094E41201EAF
:10032000A4F10104DFDC484631462A464346BDE8D5
:10033000F09FD2B201E000F8012B491EFBD27047BA
:100340000022F6E710B513460A4604461946FFF7A1
:10035000F0FF204610BD30B504460020034600E003
:100360005B1C934203D2E05CCD5C401BF8D030BDF7
:10037000202A04DB203A00FA02F100207047914065
:10038000C2F1200320FA03F3194390407047202A5A
:1003900004DB203A21FA02F00021704721FA02F32F
:1003A000D040C2F120029140084319467047000036
:1003B000064C074D06E0E06840F0010394E80700B2
:1003C00098471034AC42F6D3FFF76AFFE4380008D0
:1003D00004390008FEE7704772B6FEE770B50446C0
:1003E00000F02AF90546601C02D004480078044455
:1003F00000F022F9401BA042FAD370BD0400002493
:100400002DE9F84F03247D4D00234FF001094FF0F3
:10041000B04B4FF00F0AE9E009FA03F73A4076D003
:100420000E7906F00306012E01D0022E18D1D0F865
:1004300008C04FEA430ECE6804FA0EF82CEA080C06
:1004400006FA0EF646EA0C068660D0F804C00E796D
:100450002CEA070CC6F300169E4046EA0C064660DE
:100460000E79F643B6070BD0C6684FEA43088F688B
:1004700004FA08FC26EA0C0607FA08F73743C760B7
:100480000E7906F00306022E12D1DE080F694FEA3C
:10049000437C00EB8606B646366A4FEADC6C0AFA05
:1004A0000CF807FA0CF726EA08063743CEF8207056
:1004B0000F7906684FEA430807F0030704FA08FCBF
:1004C00007FA08F726EA0C06374307604E6816F469
:1004D000403F1CD04A4E376847F002073760366805
:1004E0009F0706F00206009623F0030606F1B046C9
:1004F000B6463F0FD6F80864DFF808810AFA07FC11
:10050000404526EA0C0603D14FF0000C41E06CE0B8
:10051000DFF8F4C0604502D14FF0010C39E0DFF89C
:10052000ECC0604502D14FF0020C32E0DFF8E0C0D1
:10053000604502D14FF0030C2BE0DFF8D8C06045D6
:1005400002D14FF0040C24E0DFF8CCC0604502D1AA
:100550004FF0050C1DE0DFF8C4C0604502D14FF03C
:10056000060C16E0DFF8B8C0604502D14FF0070C6A
:100570000FE0DFF8B0C0604502D14FF0080C08E092
:10058000DFF8A4C0604502D14FF0090C01E04FF044
:100590000A0C0CFA07FC4CEA060CCEF808C44F68AB
:1005A000DBF80060FF0226EA020600D516435F462C
:1005B000CBF80060D1F804C0DBF804605FEA8C2C53
:1005C00026EA020600D516437E606E684F6826EA6A
:1005D0000206BF0300D516436E602E684F6826EAF8
:1005E0000206FF0300D516432E605B1C0A6832FA30
:1005F00003F67FF411AFBDE8F88F000080000058CB
:10060000F44402580000025800040258000802583E
:10061000000C02580010025800140258001802582A
:10062000001C0258002002580024025801480068AB
:10063000000C70470010005C0148806870470000A3
:100640000400002430B590F84120202A24D190F8ED
:100650004020012A20D0012380F84030242280F855
:100660004120202300240268156825F0010515604B
:100670000268156825F480551560026815680D43F9
:10068000156001680A6842F001020A6080F8413092
:1006900080F84040002030BD022030BD30B590F8D9
:1006A0004120202A22D190F84020012A1ED0012387
:1006B00080F84030242280F8412020240025026860
:1006C000136823F0010313600268136823F4706356
:1006D00043EA0121116001680A6842F001020A60E0
:1006E00080F8414080F84050002030BD022030BDED
:1006F00070B5040004D094F84100002510B106E064
:10070000012070BD204684F8405000F0ABF9242051
:1007100084F841002068016821F001010160D4E9FA
:10072000001020F0706008612068816821F40041A9
:100730008160E06821680128A06806D040F4044088
:100740008860E068022803D006E040F40040F7E744
:1007500021684FF40060486020212068114A4368F6
:10076000134343602068C26822F40042C26054F818
:10077000106B0DCC104340EA0320F06054F81C3C91
:10078000D4E900021043186054F81C0D026842F0CE
:1007900001020260656484F84110256384F84250C8
:1007A000002070BD008000022DE9FF4F83B0044699
:1007B00090F841009A469346DDE91087DDF84890AD
:1007C000202874D15FEA080014D09FB194F840004B
:1007D00001286CD0012084F84000FFF72DFF012292
:1007E000064619230090D103204601F019FF002886
:1007F00071D103E04FF4007060646CE00025C4F830
:100800002480222184F84110402084F8420065644D
:100810006785534665635A4604992046CDE900969C
:1008200001F082FE10B184F8405054E0618DFF2742
:1008300034484FF08078FF294FF0007A04D927859B
:100840003A464346009005E0618D5346218500906D
:1008500094F828202046049901F0CAFE00224B4655
:1008600004212046009601F0DBFEA0BB2068616AEF
:10087000406A0870606A401C6062208D401E81B230
:100880002185608D401E6085608DD8B1D1B9002270
:100890004B4680212046009601F0C2FED8B9608DFB
:1008A000FF2805D927853A464346009506E026E00D
:1008B000608D53462085009594F8282020460499A1
:1008C00001F096FE608D0028C8D132464946204688
:1008D00001F0D3FE18B1012007B0BDE8F08F216808
:1008E0002020094AC86121684B6813404B6084F896
:1008F000410084F84250002084F84050ECE7022088
:10090000EAE700000024008000E800FE2DE9FF4F28
:1009100083B0044690F841009A469346DDE910877B
:10092000DDF84890202871D15FEA080014D09FB10B
:1009300094F84000012869D0012084F84000FFF7B6
:100940007BFE0122064619230090D103204601F0C8
:1009500067FE00286ED103E04FF40070606469E028
:100960000025C4F82480212184F84110402084F817
:10097000420065646785534665635A46049920467C
:10098000CDE9009601F002FE10B184F8405051E02C
:10099000608DFF274FF08078FF284FF0007A04D950
:1009A00027853A464346009505E0608D53462085ED
:1009B000009594F828202046049901F019FE32464B
:1009C0004946204601F080FEA0BB606A216800789D
:1009D0008862606A401C6062608D401E6085208D68
:1009E000401E80B22085618DD9B1D0B900224B461E
:1009F00080212046009601F013FED8B9608DFF28B3
:100A000005D927853A464346009506E026E0608DE5
:100A100053462085009594F828202046049901F03B
:100A2000E7FD608D0028CAD132464946204601F0D4
:100A300024FE18B1012007B0BDE8F08F2068202106
:100A4000074AC161206843681340436084F841103D
:100A500084F84250002084F84050ECE70220EAE796
:100A600000E800FE10B5B6B0044614212FA8FFF729
:100A700067FCBC216846FFF763FC18492068884280
:100A800029D10820009000246846209400F042FA02
:100A900008B1FFF7A1FC1248016841F002010160B2
:100AA00000682FAB122100F0020034904FF4407028
:100AB000042283E813000B482FA9CDE93242FFF747
:100AC0009FFC07480830016841F40011016000688C
:100AD00000F40010349036B010BD00000054004007
:100AE000E044025800040258024881680278114428
:100AF0008160704704000024032010B500F078F8EE
:100B000000F0E6FF0F4A104914681368C4F303228B
:100B100003F00F038A5CC95C02F01F0201F01F01A1
:100B2000D0400A4A20FA01F11160094908600F20FB
:100B300000F010F808B1012010BD00F02BF80020E3
:100B400010BD000018440258D438000814000024D6
:100B50001000002470B50D4D04462878A0B14FF464
:100B60007A71B1FBF0F00A490968B1FBF0F001F0CD
:100B7000E3FA48B9102C07D200222146501E00F09B
:100B800017F800206C6070BD012070BD04000024C7
:100B900010000024054808B5016841F00201016019
:100BA000006800F00200009008BD0000F444025804
:100BB0000E4BF0B41B680D46C3F30223C3F10706C6
:100BC000042E00D90426191D072901D2002300E0B4
:100BD000DB1E012404FA06F19C40491E2940641ED4
:100BE000994014402143F0BC02F0FEBA0CED00E045
:100BF000064900F0070210B54FF6FF040868044BE1
:100C0000204040EA02201843086010BD0CED00E0CF
:100C10000000FA05134970B50A68D243520705D59A
:100C2000096801F00701814213D118E00A6822F037
:100C3000070202430A60FFF7FFFC0A4D4FF47A7681
:100C40000446083D07E000BFFFF7F6FC001BB0427A
:100C500001D9012070BD2868C0438004F4D400206D
:100C600070BD00000C48025810B500F0EBFE0549BD
:100C70000968054AC1F30211515C01F01F01C84027
:100C800010BD000020440258D4380008494930B54E
:100C9000484C0B1D0A68143409681D68246802F06A
:100CA0000303C5F30012C1F30531C4F3CC040029DA
:100CB00014FB02F200EE102AF8EE400A75D03F4A0B
:100CC0009FED3D1AB7EE000A6BB1DFED3D1A012B27
:100CD00001D0022B64D002EE101A1168F8EE422AFD
:100CE00081EEA22A21E0334C283C23689B0612D5D2
:100CF000344B246801EE901A1168C4F3C104F8EE75
:100D0000612AE34001EE903AC1F30801F8EE611A5E
:100D100081EEA22A0BE001EE901ADFED2B2A00BF34
:100D2000F8EE611A116882EEA12AC1F3080101EE02
:100D3000901A1168F8EE611A40EE811A71EE800A7D
:100D400062EE200AC1F3462101EE101AB8EE411AF4
:100D500031EE001AC0EE811ABCEEE11A80ED001AE5
:100D60001168C1F3064101EE101AB8EE411A31EED6
:100D7000001AC0EE811ABCEEE11A80ED011A11686A
:100D8000C1F3066101EE101AB8EE411A31EE000A05
:100D900080EE801ABCEEC10A80ED020A30BD04E08C
:100DA00001EE901ADFED092ABAE7002101604160E7
:100DB0008160F3E7284402580000003938440258A3
:100DC0000024744A0090D0030024744C20BCBE4B15
:100DD000494930B5484C0B1D0A681C3409681D6828
:100DE000246802F00303C5F30022C1F30551C4F3E4
:100DF000CC04002914FB02F200EE102AF8EE400A9F
:100E000075D03F4A9FED3D1AB7EE000A6BB1DFED9A
:100E10003D1A012B01D0022B64D002EE101A11688A
:100E2000F8EE422A81EEA22A21E0334C283C2368C6
:100E30009B0612D5344B246801EE901A1168C4F356
:100E4000C104F8EE612AE34001EE903AC1F30801D3
:100E5000F8EE611A81EEA22A0BE001EE901ADFEDA6
:100E60002B2A00BFF8EE611A116882EEA12AC1F3A5
:100E7000080101EE901A1168F8EE611A40EE811A2D
:100E800071EE800A62EE200AC1F3462101EE101ACB
:100E9000B8EE411A31EE001AC0EE811ABCEEE11A2A
:100EA00080ED001A1168C1F3064101EE101AB8EE88
:100EB000411A31EE001AC0EE811ABCEEE11A80ED43
:100EC000011A1168C1F3066101EE101AB8EE411A59
:100ED00031EE000A80EE801ABCEEC10A80ED020AF3
:100EE00030BD04E001EE901ADFED092ABAE70021D7
:100EF000016041608160F3E7284402580000003936
:100F0000404402580024744A0090D0030024744CDA
:100F100020BCBE4B2DE9FC5F044650F8241B002585
:100F200000902E460801FE4FDFF8F8831DD5606E55
:100F300050B1B0F5801F0CD0B0F5001F0ED0B0F549
:100F4000401F1DD001250FE0386840F400303860A4
:100F500016E00221201D01F06BFC03E00098022145
:100F600001F0F6FC05000BD02E462088C00523D5E5
:100F7000606D05281ED2DFE800F00C11161B1B0067
:100F8000626ED8F8001021F440111143C8F8001027
:100F9000EBE7386840F40030386009E00021201D9C
:100FA00001F046FC03E00098002101F0D1FC054669
:100FB0006DB100E001252E462088800528D5A06D62
:100FC00080281ED00CDC90B140280ED114E0626D58
:100FD000D8F8001021F007011143C8F80010EBE722
:100FE000C02813D0B0F5807F10D001250FE03868FD
:100FF00040F40030386009E00021201D01F018FCA9
:1010000003E00098002101F0A3FC054695B12E46AF
:101010002088DFF81093400509F108092CD5D4F891
:10102000A400B0F5800F20D00DDCA0B1B0F5001FFA
:101030000FD115E0A26DD8F8001021F4E071114332
:10104000C8F80010E4E7B0F5C00F13D0B0F5000FFA
:1010500010D001250FE0386840F40030386009E016
:101060000021201D01F0E4FB03E00098002101F0C5
:101070006FFC054675B12E46208800052DD5D4F8A5
:10108000A800B0F1007F21D00EDCA8B1B0F1807FC4
:1010900010D116E0D4F8A420D9F8001021F4600192
:1010A0001143C9F80010E7E7B0F1407F13D0B0F169
:1010B000806F10D001250FE0386840F400303860B0
:1010C00009E00021201D01F0B3FB03E0009800219E
:1010D00001F03EFC05466DB12E46206880011FD50B
:1010E000A06CD8B110280FD0202812D0302815D0ED
:1010F000012514E0D4F8A820D9F8001021F0E0610F
:101100001143C9F80010E8E7386840F4003038604F
:1011100004E00221201D01F08BFB05466DB12E4637
:101120002088C0042BD5E06DB0F5005F20D00DDC29
:10113000A0B1B0F5805F0FD115E07A48A26C001F16
:10114000016821F0300111430160E9E7B0F5405F2B
:1011500013D0B0F5804F10D001250FE0386840F46F
:101160000030386009E00021201D01F061FB03E040
:101170000098002101F0ECFB054685B12E46208841
:10118000800429D5206EB0F5403F23D010DC08B391
:10119000B0F5803F14D0B0F5003F0FD115E0E26DFF
:1011A000D8F8001021F4E0411143C8F80010E6E738
:1011B000B0F5802F0ED0B0F5A02F0BD001250AE09E
:1011C0000121201D01F034FB03E00098012101F012
:1011D000BFFB05468DB12E46208840042AD5D4F8A1
:1011E000AC00B0F1405F23D010DC08B3B0F1805FF9
:1011F00014D0B0F1005F0FD115E0226ED8F80010C6
:1012000021F4E0211143C8F80010E5E7B0F1804F68
:101210000ED0B0F1A04F0BD001250AE00121201D16
:1012200001F006FB03E00098012101F091FB054667
:101230006DB12E46208800041FD5E06ED8B1B0F104
:10124000805F0ED0B0F1005F10D0012514E0D4F81B
:10125000AC20D9F8001021F0E0411143C9F800108A
:10126000E8E7386840F40030386004E00121201DD0
:1012700001F0DEFA05466DB12E462068C0011ED58C
:10128000606CD0B101280ED0022811D0032814D0F0
:10129000012513E0E26ED8F8001021F0405111430F
:1012A000C8F80010E9E7386840F40030386004E01E
:1012B0000221201D01F0BCFA054685B12E462068AA
:1012C000DFF85CB04002ABF11C0B57D51648016843
:1012D00041F480710160FFF7AFF982460EE01148DA
:1012E000626C001F016821F0030111430160E6E711
:1012F000FFF7A2F9A0EB0A0064283DD80A4800686D
:10130000C005F5D57DBBDFF81CA0B4F8B0200AF10C
:10131000200ADAF8001002F4407001F4407105E090
:101320002C4402585044025800480258814211D0BF
:10133000DAF80010DAF8002021F4407142F480322B
:10134000CAF80020DAF8002022F48032CAF800201F
:10135000CAF80010D4F8B000B0F5807F21D1FFF7B3
:101360006BF9019019E008E0FFF766F90199411A5D
:1013700041F28830814210D903252E462078DFF8CB
:1013800044A4C0073DD0A06F182838D026DC80B315
:10139000082829D0102825D12CE0DAF80000800791
:1013A000E2D5D4F8B010C1F30120032858460DD07F
:1013B000016821F47C510160B4F8B020DAF8001023
:1013C000C2F30B021143CAF80010D7E7FE4A0368C4
:1013D00002EA111223F47C511143ECE720280ED0CD
:1013E00028280CD001250BE00121201D01F020FA56
:1013F00004E004E00098012101F0AAFA05465DB17D
:101400002E46207880071ED5606F062819D2DFE8A7
:1014100000F0160C11161616A26FDAF8001021F063
:1014200038011143CAF80010EBE70121201D01F03B
:10143000FFF903E00098012101F08AFA054675B131
:1014400000E001252E46207840071FD5D4F89000F3
:10145000062819D2DFE800F0160C11161616626F76
:10146000DAF8001021F007011143CAF80010EAE78A
:101470000121201D01F0DCF903E00098012101F0B9
:1014800067FA05469DB100E001252E4620788006CA
:101490002BD5D4F88C00B0F1405F24D011DC10B310
:1014A000B0F1805F15D0B0F1005F10D116E0D4F834
:1014B0009020D9F8001021F007011143C9F800105D
:1014C000E4E7B0F1804F0ED0B0F1A04F0BD0012572
:1014D0000AE00021201D01F0ABF903E00098022191
:1014E00001F036FA05468DB12E46207840062BD500
:1014F000D4F89800B0F5406F24D011DC10B3B0F5EB
:10150000806F15D0B0F5006F10D116E0D4F88C20A4
:10151000DAF8001021F0E0411143CAF80010E4E7C6
:10152000B0F5805F0ED0B0F5A05F0BD001250AE0CA
:101530000021201D01F07CF903E00098022101F058
:1015400007FA05468DB12E46207800062BD5D4F833
:101550009C00B0F5C04F24D011DC10B3B0F5005F93
:1015600015D0B0F5804F10D116E0D4F89820D9F8F6
:10157000001021F4E0511143C9F80010E4E7B0F580
:10158000004F0ED0B0F5204F0BD001250AE000210E
:10159000201D01F04DF903E00098022101F0D8F977
:1015A00005464DB12E46207800071ED5D4F88000A0
:1015B000B0F5805F0AD00FE0D4F89C20D9F8001075
:1015C00021F460411143C9F80010ECE700980221B2
:1015D00001F0BEF900B10126D4F88020DAF800103D
:1015E00021F440511143CAF800102078C00613D5E9
:1015F000D4F89400B0F5807F05D10098022101F065
:10160000A7F900B10126D4F89420D9F8001021F4EC
:1016100040711143C9F800102068000316D5D4F8B2
:10162000A00038B1B0F5803F09D0B0F5003F0BD035
:1016300001250AE00021201D01F0FAF803E00098DE
:10164000022101F085F9054685B12E462068400348
:1016500022D5D4F88400B0F5801F11D0B0F5001F5A
:1016600013D0B0F5401F15D0012514E0D4F8A02008
:10167000D9F8001021F440311143C9F80010E5E712
:10168000386840F40030386004E00098012101F02F
:101690005FF9054655B12E462068C0031CD5E06CA5
:1016A00070B1B0F5803F10D0012514E0D4F884204B
:1016B000DAF8001021F440111143CAF80010EBE7EA
:1016C000386840F40030386004E00221201D01F049
:1016D000AFF80546CDB12E462068800005D50098AC
:1016E000022101F035F900B10126206880031BD5E5
:1016F000E06FB8B1B0F5807F10D0B0F5007F11D0A9
:10170000B0F5407F0ED001250DE02E48E26C083880
:10171000016821F4803111430160DDE7386840F44D
:1017200000303860F5B32E462068C00207D5226F1E
:10173000D8F8001021F000411143C8F800102068CB
:10174000C00008D5D4F8B420DBF8001021F48041A3
:101750001143CBF800102068800207D5A26ED8F89C
:10176000001021F080711143C8F80010206840007B
:101770000CD5DBF8001021F40041CBF80010DBF8A9
:101780000010D4F8B8201143CBF8001020680028CE
:1017900007DA0C48226D0838016821F040511143E6
:1017A000016000E014E02068000208D5D4F8882029
:1017B000DAF8001021F440011143CAF8001086B194
:1017C000012003E054440258CFFFFF00BDE8FC9F16
:1017D000E26FDAF8001021F440711143CAF80010EA
:1017E000A2E70020EDE700002DE9F05F04000F46BE
:1017F0007ED0DFF83882D8F8000000F00F00B84241
:101800000CD2D8F8001021F00F013943C8F80010AD
:10181000D8F8000000F00F00B84269D12078844D5C
:1018200040070AD52069296801F07001884204D96F
:10183000296821F070010143296020787C4E361D13
:1018400000070AD56069316801F07001884204D947
:10185000316821F07001014331602078C0060AD55B
:10186000A069316801F4E061884204D9316821F44B
:10187000E061014331602078DFF8B4B180060BF1FC
:10188000080B0CD5E1695846DBF8002002F0700225
:10189000914204D9026822F070020A430260207863
:1018A00080070AD5E068296801F00F01884204D951
:1018B000296821F00F01014329602078C0073ED03C
:1018C0005B49A2682868183920F4706010432860CA
:1018D0006068022818D0032819D00968012819D097
:1018E000490700294ADADFF848A1AAF1080A00E00E
:1018F00044E0DAF8002022F007020243CAF8002090
:10190000FEF79AFE814612E009688903E9E7096853
:101910008901E6E7C905E4E7FEF78EFEA0EB0901C1
:1019200041F28830814202D90320BDE8F09F61680E
:10193000DAF8000000F03800B0EBC10FECD12078ED
:1019400080070AD5E068296801F00F01884204D2B7
:10195000296821F00F0101432960D8F800104046A2
:1019600001F00F01B9420BD9016821F00F01394391
:101970000160006800F00F00B84201D00120D4E7F8
:10198000207840070AD52069296801F07001884253
:1019900004D2296821F070010143296020780007F2
:1019A0000AD56069316801F07001884204D231685B
:1019B00021F07001014331602078C0060AD5A0698A
:1019C000316801F4E061884204D2316821F4E061B9
:1019D00001433160207880060CD5E1695846DBF878
:1019E000002002F07002914204D2026822F07002DC
:1019F0000A43026000F06CF80E492A682B68C2F3B3
:101A0000032203F00F038A5CC95C02F01F0201F09D
:101A10001F01D040084A20FA01F11160074908600F
:101A200007480068BDE8F05FFFF794B80020005257
:101A300018440258D4380008140000241000002470
:101A40000800002430B500F043F80B4A0B490C4B5A
:101A500015681468C5F3032204F00F048A5C095D5D
:101A600002F01F0201F01F01D040064A20FA01F1E6
:101A700019601060084630BD18440258D438000878
:101A8000140000241000002400B5FFF7DBFF054917
:101A90000968054AC1F30211515C01F01F01C840F9
:101AA00000BD00001C440258D438000800B5FFF700
:101AB000C9FF05490968054AC1F30221515C01F0DB
:101AC0001F01C84000BD00001C440258D438000863
:101AD000454970B545480968434B103B11F0380241
:101AE00008D00111082A03D0102A0BD0182A0BD0D5
:101AF000084670BD19688906FBD51968C1F3C10194
:101B0000C84070BD3A4870BD3749374D18310C1D7B
:101B100024350A68096826682D6802F0030406F077
:101B20000102C1F30511C5F3CC0515FB02F200EE6D
:101B3000102AB8EE400AE9B32F4ADFED2E0AB7EEBD
:101B4000001A6CB1DFED2D1A012C01D0022C43D00C
:101B500002EE101A1068F8EE422A81EEA22A1EE068
:101B60001C68A40611D51B6801EE901A1168C3F316
:101B7000C103F8EE612AD84001EE900AC1F30800D3
:101B8000F8EE611A81EEA22A0BE001EE901ADFED69
:101B90001C2A00BFF8EE611A106882EEA12AC0F379
:101BA000080001EE900AF8EE611A40EE201A31EEBC
:101BB000810A00E015E022EE000A1068C0F346201A
:101BC000401C00EE900AF8EE600A80EE201ABCEE8F
:101BD000C10A10EE100A70BD01EE901ADFED092A5D
:101BE000D8E7002070BD0000104402580090D003D8
:101BF00040787D0100000039304402580024744AC6
:101C00000024744C20BCBE4B2DE9F05F04007DD055
:101C1000FF4F2078FE4D1837DFF8F493103DC007D2
:101C200048D0D9F80000396800F03800102815D0E5
:101C3000182803D101F0030002280FD06068B0F526
:101C4000803F12D010B1B0F5A02F18D0286820F432
:101C500080302860286820F4802009E0286880030C
:101C600028D560680028D2D024E0286840F480306D
:101C70002860606888B1FEF7DFFC064609E0286846
:101C800040F480202860F0E7FEF7D6FC801B642833
:101C90006FD828688003F7D50CE0FEF7CDFC064628
:101CA00005E000BFFEF7C8FC801B6428F0D8286858
:101CB0008003F7D4207841F20308D54E0C3E80070C
:101CC00069D5D9F80000396810F038000ED018280E
:101CD00001D188070AD0E06890B3296821F0190182
:101CE00001432960FEF7A8FC824631E028684007DE
:101CF00002D5E06800288AD0E168286820F0190041
:101D000008432860FEF798FC824607E0DFE000BF4A
:101D1000FEF792FCA0EB0A000228B9D82868400719
:101D2000F6D500BFFEF782FC40451BD8206940284D
:101D300012D0316821F47C3141EA003030602AE071
:101D400018E000BFFEF778FCA0EB0A0002289FD83D
:101D500028684007F6D5E5E7306820F47C3040F489
:101D60000030EBE7207C316821F0FE4141EA006061
:101D7000E4E70DE1286820F001002860FEF75CFC34
:101D8000824605E0FEF758FCA0EB0A0002288DD839
:101D900028684007F6D42078C0065DD5D9F8000041
:101DA000DFF86CB2396800F03800ABF1040B08289A
:101DB00010D0182803D101F0030001280AD0E069EF
:101DC0000028286838D040F080002860FEF734FCF6
:101DD000824623E02868C00523D5E069802876D1B3
:101DE0001FE0206A202821D0316821F0F84141EA23
:101DF0008060306030E000BF94F82010DBF80020F5
:101E000022F07C5242EA0161CBF8001024E000BFCE
:101E1000FEF712FCA0EB0A00022898D82868C0053B
:101E2000F6D5FEF703FC4045E6D8DAE7306820F047
:101E3000F84040F08040DCE720F080002860FEF7AA
:101E4000FBFB064605E000BFFEF7F6FB801B022801
:101E50009DD82868C005F7D42078000729D56C489C
:101E60006169643000298046016811D041F00101A8
:101E70000160FEF7E1FB064605E000BFFEF7DCFB74
:101E8000801B0228C9D8D8F800008007F6D510E0DA
:101E900021F001010160FEF7CFFB064605E000BF1F
:101EA000FEF7CAFB801B022872D8D8F80000800712
:101EB000F6D42078800623D5A0690028286810D0A1
:101EC00040F480502860FEF7B7FB064605E02CE1A1
:101ED000FEF7B2FB801B02285AD828688004F7D589
:101EE0000EE020F480502860FEF7A6FB064604E0D2
:101EF000FEF7A2FB801B02284AD828688004F7D48A
:101F0000207840074FD5DFF80C81D8F8001041F455
:101F10008071C8F80010FEF78FFB064605E000BF91
:101F2000FEF78AFB801B642832D8D8F80000C00571
:101F3000F6D5374EA068603601280AD008B10528CA
:101F400013D0306820F001003060306820F00400C9
:101F500002E0306840F001003060A06841F2883A49
:101F600090B1FEF769FB80460AE0306840F004005B
:101F70003060EEE7FEF760FBA0EB0801514507D8A3
:101F800030688007F6D50EE0FEF756FB804607E086
:101F900084E000BFFEF750FBA0EB080151457DD85F
:101FA00030688007F6D4606AB0B3DFF86480D9F88F
:101FB000001008F12008C1F3C20103296FD00228E4
:101FC000286820F08070286003D0FEF735FB0446B7
:101FD00080E0FEF731FB064605E000BFFEF72CFB74
:101FE000801B022873D828688001F7D4E26A40F287
:101FF000F331386854F8283F884340EA0210184308
:102000003860217B4FF4FE0C22894FF0FE4704E03C
:10201000104402580048025889E0208A4902521EA2
:10202000267DA1F5007189B2401EC2F3080211435A
:10203000761E0CEA004001433E4807EA066211435F
:102040003C4AC8F800100832016821F00101016023
:1020500011684FF6F876236AB14341EAC301116073
:102060000168A26921F00C01114301600168E26975
:1020700021F0020111430160016841F480310160E7
:10208000016841F400310160016841F48021016080
:10209000016841F001010160286801E017E01DE0DE
:1020A00040F080702860FEF7C7FA044605E000BFE4
:1020B000FEF7C2FA001B022809D828688001F7D56C
:1020C00035E000BFFEF7B8FA001B022802D9032052
:1020D000BDE8F09F28688001F4D428E03968012821
:1020E000D8F8000021D0A26A01F0030393421CD16A
:1020F000E26AC1F305118A4217D1216BC0F30802CD
:10210000491E8A4211D1616BC0F34622491E914299
:102110000BD1A16BC0F30642491E914205D1E16B80
:10212000C0F30660491E814201D00120D0E70020A3
:10213000CEE700002C440258401EB0F1807F10B55D
:1021400001D3012010BD4FF0E02460610F21601722
:1021500001F04AF80020A0610721216110BD30B5CF
:1021600090F88010012918D0012280F880202421C5
:10217000C0F884100022202450F8641B0B680D68FE
:1021800023F0005325F001050D60026050F8641C37
:102190000B6004620277104630BD022030BD70B57E
:1021A000044690F8800001281DD0012284F8802088
:1021B0002420C4F8840020680568026822F0010227
:1021C00002602068826822F060620A4382602046D2
:1021D00000F008FD2268202100201560C4F884105A
:1021E00084F8800070BD022070BD70B5044690F880
:1021F000800001281DD0012284F880202420C4F80A
:10220000840020680568026822F0010202602068EC
:10221000826822F060420A438260204600F0E2FCBD
:102220002268202100201560C4F8841084F8800002
:1022300070BD022070BD10B5040003D0D4F8840036
:1022400010B107E0012010BD002084F88000204676
:1022500000F026F82420C4F884002068016821F0EA
:1022600001010160204600F073FD0128EBD0A06A57
:1022700010B1204600F0D8FC2068416821F490415C
:1022800041602068816821F02A018160206801682E
:1022900041F0010101602046BDE8104000F028BD7A
:1022A00010B5B6B0044614212FA8FEF749F8BC219A
:1022B0006846FEF745F818492068884229D104206D
:1022C0000090002468462494FEF724FE08B1FEF72F
:1022D00083F81248016841F008010160006800F0CD
:1022E000080034900D481438016841F00101016084
:1022F00000682FAB022100F0010034904FF4C06061
:10230000032283E8130006482FA9CDE93242FEF7E5
:1023100077F836B010BD0000000C0058F4440258A5
:10232000000002582DE9F8430446D0F884001F4607
:1023300016460D46202852D1DDB1D6B194F8800062
:1023400001284CD0012084F8800021224FF00008A1
:10235000C4F88C80C4F884201834FEF76DF98146E7
:1023600054F8100CA687E687183CB0F5805F03D0C0
:1023700004E00120BDE8F883206920B12E46002545
:1023800084F8808010E00026FAE78021204600F0E3
:10239000B5FEB8B9C6B116F8010B21688862B4F869
:1023A0005600401EA4F85600B4F856004B464FF0B5
:1023B000000200970028E8D14FF04001204600F0CD
:1023C0009DFE38B10320D5E735F8020B2168C0F334
:1023D0000800E3E72020C4F884000020CAE70220B8
:1023E000C8E7FEE701688A69D243920701D4002258
:1023F0008A6200688169C943C90703D0816941F0D5
:1024000001018161704700002DE9F0470446006832
:102410008A464FF0000917464FF020084D464E46B9
:102420008169C90648D51021C16136E0BAF1FF3F84
:1024300033D0FEF701F9C01B504502D8BAF1000FA6
:102440002BD12068426894F84210836902F48042DC
:10245000DB431B041CD4B2F5804F19D0202917D0C0
:10246000416841F480414160FEF7E6F807460FE01D
:10247000FEF7E2F8C01B19280AD9626C012542F068
:102480002002626484F8418084F8429084F840908D
:1024900020688069C0438006EAD420688069C04310
:1024A000800602D5002DC1D003E015B92168C1F81E
:1024B0001C80012546F0040621688869C20505D5FF
:1024C0004FF48072CA6146F00106012541050AD524
:1024D000216880054FF4806246F00806CA614FF01B
:1024E000010502D40AE0800507D5216801254FF4D3
:1024F000007046F00206C86100E085B12046FFF793
:1025000071FF2168074F4A683A404A60616C314365
:10251000616484F8418084F8429084F840902846B1
:10252000BDE8F08700E800FE2DE9F84317460446B1
:102530001548DAB2DDE908981E46009000232046CF
:1025400000F056F842464946204600F0BDF8B8B9BA
:10255000012EFDB208D02068390A81624246494600
:10256000204600F0B1F858B9206885620022402169
:102570004B462046CDF8008000F052F8002800D0ED
:102580000120BDE8F8830000002000802DE9F84319
:102590000446164817461E46DAB20090C30220468B
:1025A000DDE9089800F024F842464946204600F04C
:1025B0008BF8B8B9012EFDB208D02068390A8162C3
:1025C00042464946204600F07FF858B920688562A7
:1025D000002280214B462046CDF8008000F020F8F4
:1025E000002800D00120BDE8F88300000020008012
:1025F00070B50068C1F3090141EA0241074D049C2E
:1026000019434FF480664268214306EA54532B4332
:102610009A4321F000410A43426070BDFF63FF030B
:102620002DE9F0411D4617460E460446DDF8188098
:1026300008E0681C06D0FDF7FFFFA0EB0800A842E9
:102640000BD855B12068806936EA000013D000200D
:10265000B842EED00020BDE8F081626C002084F822
:102660004000202142F02002626484F8411084F886
:1026700042000120EFE70120EAE770B516460D465B
:1026800004460DE0324629462046FFF7BDFE08B15C
:10269000012070BDFDF7D0FF801BA84207D835B1DF
:1026A00020688069C0438006ECD4002070BD626C55
:1026B000002084F84000202142F02002626484F867
:1026C000411084F84200E3E770B516460D46044613
:1026D0000FE0324629462046FFF796FE08B101205A
:1026E00070BD681C05D0FDF7A7FF801BA84207D866
:1026F00035B120688069C0438007EAD4002070BDEE
:10270000626C002084F84000202142F020026264C4
:1027100084F8411084F84200E1E70000114808B550
:10272000016841F004010160016801F004010091B9
:10273000016841F080010160016801F080010091B1
:10274000016841F001010160016801F0010100919F
:10275000016841F002010160006800F00200009091
:1027600008BD0000E04402581348002110B5114C88
:102770000123124A0460C0E90121C0E9033141612B
:102780008161C1610162FDF7B3FF08B1FDF724FE6D
:1027900009480021FDF756FF08B1FDF71DFE064868
:1027A0000021FDF77BFF002803D0BDE81040FDF7B6
:1027B00013BE10BD005400401C020024380F30002E
:1027C0001848002110B5164C0C224FF4E133046078
:1027D000C0E90131C160C0E9041281610162416256
:1027E00081624166FFF727FD08B1FDF7F5FD0D4851
:1027F0000021FFF7FAFC08B1FDF7EEFD09480021C2
:10280000FFF7CDFC08B1FDF7E7FD0648FFF7A7FC91
:10281000002803D0BDE81040FDF7DEBD10BD00006C
:10282000000C005868020024FEE7FEE77047000035
:102830002DE9F047454D044689464FF0000A2868C7
:10284000C04380070AD0414E283E306820F08060A7
:102850003060FDF7F1FE0746B04608E00120BDE814
:10286000F08700BFFDF7E8FEC01B022867D8D8F844
:1028700000000001F6D4206829684FF4FE0721F417
:102880007C313E0241EA00302860207AA389B4F806
:1028900004C040022D4D2D495B1E227CACF1010C81
:1028A0001035091DA0F5007080B2521ECCF3080C43
:1028B00007EA034340EA0C00184306EA02621043A9
:1028C00028600868626920F0C000104308600A6848
:1028D000A06922F0200202430A60281D0A6822F043
:1028E00010020A6002684FF6F873E4699A4342EAFC
:1028F000C40202600868B9F1000F40F010020A60DB
:1029000011D00868B9F1010F11D040F4001008602F
:10291000D8F80000444640F08060C8F80000FDF799
:102920008BFE05460DE0086840F40020EFE740F418
:102930008010ECE7FDF780FE401B022801D9032040
:102940008DE720680001F5D5504688E728440258F5
:102950002DE9F047454D044689464FF0000A2868A6
:10296000C04380070AD0414E283E306820F0805096
:102970003060FDF761FE0746B04608E00120BDE883
:10298000F08700BFFDF758FEC01B022867D8D8F8B3
:1029900000008000F6D4208829684FF4FE0721F05B
:1029A0007C713E0241EA00502860207AA389B4F885
:1029B00004C040022D4D2D495B1E227CACF1010C60
:1029C0001835091DA0F5007080B2521ECCF3080C1A
:1029D00007EA034340EA0C00184306EA0262104388
:1029E00028600868626920F44060104308600A6843
:1029F000A06922F4007202430A60281D0A6822F4CA
:102A000080720A6002684FF6F873E4699A4342EAFA
:102A1000C40202600868B9F1000F40F480720A60D5
:102A200011D00868B9F1010F11D040F08070086032
:102A3000D8F80000444640F08050C8F80000FDF788
:102A4000FBFD05460DE0086840F48000EFE740F428
:102A50000000ECE7FDF7F0FD401B022801D9032040
:102A60008DE720688000F5D5504688E72844025855
:102A70007047FEF739B8000030B59DB04C2168466C
:102A8000FDF75EFC202113A8FDF75AFC0220FEF79B
:102A9000C1F81B490A681B4822F001020A60096854
:102AA000016821F4404141F4804101600168002542
:102AB00001F440411B9101688904FCD5402409952B
:102AC0000220009001216846CDE90314FFF79CF82D
:102AD00008B172B6FEE73F20CDE913054FF48061DF
:102AE0001595CDE9165413A81A94CDE91841012182
:102AF000FEF77AFE002801D072B6FEE71DB030BDA9
:102B00002C040058184802582C48F0B52C4A01688B
:102B100041F470010160106800F00F00072804D232
:102B2000106820F00F00C01D106026490020254CC1
:102B300010340B68244D43F001030B6020600B68D8
:102B40002B400B60136803F00F03072B04D91368A5
:102B500023F00F03DB1D13601A4C1C4A18341C4B66
:102B6000261D371D2060174C1A4D28343060261D55
:102B70003860371D23603B1D35601C1D3A60251DE4
:102B80002E1D1860331D22602860326018600A68AC
:102B90000C4B114C22F4802260330A6018602068CC
:102BA0006FF30F00B0F1005F03D20C490120C1F8B0
:102BB000080143F2D2000A490860F0BD88ED00E048
:102BC00000200052004402587FEDF6EA8002010125
:102BD000000202020000FF010010005C00800051B2
:102BE0000040005230B5416EB9B101680D4B03F1A0
:102BF00008048A688968C2F34262490F5D5C615CBF
:102C00002D01B5FBF1F1A0F86A10995CA25C0901F5
:102C1000B1FBF2F1A0F8681030BD0121A0F86A10F4
:102C2000F8E70000C438000890F82810C90706D05B
:102C30000168C36A4A6822F400321A434A6090F875
:102C40002810890706D50168036B4A6822F4803290
:102C50001A434A6090F82810490706D50168436B6B
:102C60004A6822F480221A434A6090F82810090723
:102C700006D50168836B4A6822F400421A434A6011
:102C800090F82810C90606D50168C36B8A6822F43B
:102C900080521A438A6090F82810890606D5016888
:102CA000036C8A6822F400521A438A6090F8281054
:102CB000490611D50168436C4A6822F480121A4310
:102CC0004A60416CB1F5801F06D10168836C4A6887
:102CD00022F4C0021A434A6090F82810090606D56B
:102CE0000168C26C486820F40020104348607047B7
:102CF000F8B500260446C0F88C60FDF79DFC05463B
:102D000020686FF07E470068000708D500222B4638
:102D10004FF400112046009700F0F0F960B92068E8
:102D2000006840070AD500222B464FF48001204658
:102D3000009700F0E3F908B10320F8BD2020C4F8A3
:102D40008400C4F88800E666002084F88060F8BD3E
:102D50002DE9F04304468068D84E87B0D84B2168EF
:102D6000D4E90427D4F81CC010430A68002547EAB8
:102D70000C073843324002430A602068E268416829
:102D800021F44051114341602268A1699A4201D067
:102D9000206A01439768DFF82CC3CB4ECB4807EA83
:102DA0000C070F4397602168676ACA6A22F00F0216
:102DB0003A43CA622268B2420ED1006800F038007D
:102DC000182873D047DCB8B3082879D010286FD101
:102DD00078E028287ED17BE0BD498A4209D100688D
:102DE00000F00700062875D2DFE800F0546A6C6E28
:102DF0007072B8498A4209D1006800F007000628BD
:102E000068D2DFE800F0475D5F616365B2498A42DE
:102E100009D1006800F0070006285BD2DFE800F067
:102E20003A5052545658AD498A420BD1006800F0CE
:102E3000070006284ED200E010E0DFE800F02B414A
:102E400043454749A6498A420AD1006800F0380044
:102E5000182839D0B7DD2028BBD13CE001203AE06A
:102E6000A0498A4209D1006800F00700062831D243
:102E7000DFE800F01026282A2C2E9B498A420BD12D
:102E8000006800F00700062824D2DFE800F00319EC
:102E90001B1D1F2100201EE09A421BD18B48001DE4
:102EA000006800F00700062814D202E00CE007E0FA
:102EB00010E0DFE800F0030507090B0D02200AE02F
:102EC000042008E0082006E0102004E0202002E0B2
:102ED000402000E080208549DFF814829A42854A2C
:102EE0004FF400434FEA21174FF000064ED110284F
:102EF0001AD006DC022809D004280BD008287CD17F
:102F00000DE020283ED0402877D13DE0FDF7ACFE13
:102F1000014610E06846FDF7B9FE01990BE003A8F1
:102F2000FDF756FF049906E01068800605D5106885
:102F3000C0F3C100C140002970D0606A676838F8EA
:102F4000102007EB4703B1FBF2F0834255D8B0EBFA
:102F5000073F52D8002308461946FDF7B9F9024643
:102F60007808130E120243EA012110183A46714103
:102F70000023FDF7ADF9604AA0F5407191423CD8BD
:102F800021688FE03946D8E71946D6E7D4F81CC047
:102F90004FF6EF799C4546D1082819D005DC58B189
:102FA00001280CD0042875D10DE0102815D0202858
:102FB00035D040286ED134E0FEF766FD01E0FEF723
:102FC00075FD014610E06846FDF760FE01990BE0D3
:102FD00003A8FDF7FDFE049906E01068800604D5FD
:102FE0001068C0F3C100C140C1B1636A606838F8BD
:102FF0001330B1FBF3F1490000E04BE001EB50016D
:10300000B1FBF0F0A0F11001494543D84FF6F07341
:103010002168C0F342021840104343E043E03946C0
:10302000E3E71946E1E7082819D005DC58B1012883
:103030000CD004282ED10DE0102815D020282BD03C
:10304000402827D12AE0FEF71FFD01E0FEF72EFD04
:10305000014610E06846FDF719FE01990BE003A850
:10306000FDF7B6FE049906E01068800604D51068E6
:10307000C0F3C100C140B1B1636A606838F8133071
:10308000B1FBF3F101EB5001B1FBF0F0A0F1100145
:10309000494505D9012506E03946EDE71946EBE734
:1030A000216880B2C8600120A4F86A00A4F8680012
:1030B00028462667666707B0BDE8F083F369FFCF4F
:1030C000000C0058FFF4FF11001001405444025856
:1030D0000044004000480040004C004000500040C8
:1030E0000014014000780040007C00400090D003B4
:1030F000AC38000800440258FFFC0F002DE9F047EF
:103100009A4617460E460446089D4FF000094FF0B8
:1031100020084CE0681C4AD0FDF78EFAA0EB0A00AC
:10312000A8422AD84DB32068016849073FD5C06935
:10313000C04300053BD421684FF400600862216859
:1031400051E8000F20F4D07041E80002002AF6D1C7
:103150002068083050E8001F21F0010140E800120B
:10316000002AF5D1C4F8848084F88090C4F888805F
:10317000C4F88C800320BDE8F087206850E8001F69
:1031800021F4D07140E80012002AF6D120680830FE
:1031900050E8001F21F0010140E80012002AF5D19B
:1031A000C4F8848084F88090C4F88880E2E72068BE
:1031B000C06936EA000004D00020B842AAD000203E
:1031C000D9E70120F9E7FEE70FB4054B10B503A9D5
:1031D000044A029800F028F810BC5DF814FB0000C7
:1031E0008D36000818000024090700284FEA1161F5
:1031F00004DB00F1E02080F80014704700F00F00BD
:1032000000F1E02080F8141D704702E008C8121F8A
:1032100008C1002AFAD170477047002001E001C1BF
:10322000121F002AFBD170472DE9FF4F8DB00F46CA
:103230000546002606E025280BD0DDE90F12904751
:103240006D1C761C28780028F5D111B03046BDE8F9
:10325000F08F0024A246A1460122EC4900E004437D
:1032600015F8013F203B02FA03F00842F7D1287815
:103270002A2810D06FF02F022878A0F130010929F8
:1032800014D80AEB8A0102EB410144F0020400EB7E
:10329000010A6D1CF0E701CF5FEA000A03D544F490
:1032A0000054CAF1000A44F002046D1C28782E284C
:1032B00017D115F8010F44F004042A280ED06FF03E
:1032C0002F022878A0F1300109290AD809EB8901D9
:1032D00002EB410100EB01096D1CF2E757F8049B7A
:1032E0006D1C28786C280FD006DC4C2817D0682875
:1032F0000DD06A2814D104E0742810D07A280FD198
:103300000DE044F400140AE044F4801401E044F4B5
:1033100040146978814202D104F580146D1C6D1C43
:103320002A786E2A1FD00CDC632A31D004DC002AF4
:103330008BD0582A11D1A3E0642A68D0692A0CD115
:1033400065E0732A2ED004DC6F2A73D0702A04D172
:103350009BE0752A6FD0782A6ED01046DDE90F12F7
:103360009047761C50E1C4F30250022806D003288F
:1033700009D0042801CF09D0066045E101CFF1173B
:10338000C0E9006140E101CF06803DE106703BE10C
:1033900017F8040B8DF8000000208DF80100EB46B3
:1033A000012003E057F804BB4FF0FF3061074FF0F6
:1033B000000102D40DE008F10101884649450FDA09
:1033C0008045F8DB1BF808100029F4D108E008F16B
:1033D000010188468142FADB1BF808100029F6D16A
:1033E000DDE90F23AAEB08008146214600F036F9FB
:1033F000304400EB080604E0DDE90F121BF8010B76
:103400009047B8F10108F7D221464846F7E00A2173
:10341000C4F302534FF0000B0891022B04D001CFEC
:10342000C117032B09D00AE0FF1D27F00707F7E8B3
:10343000020108E032E01FE020E000B2C117042BD7
:1034400001D140B2C117031E71F1000307DA4FF03A
:10345000000CD0EB0C006CEB01012D2302E02305E6
:1034600004D52B238DF82430012303E0E30701D09A
:103470002023F7E7984658E00A2110E010210EE0DB
:1034800010204FF0000B08900CE010214FF0000BC3
:1034900044F004044FF00809089103E008214FF0BC
:1034A000000B0891C4F30253022B04D001CF00217A
:1034B000032B06D006E0FF1D27F00707F7E80201FF
:1034C00003E080B2042B00D1C0B24FF00008230704
:1034D0002BD5702A07D0DDF820C08CF0100C5CEAE8
:1034E0000B0C05D00EE040238DF82430012308E0BA
:1034F00050EA010306D030238DF824308DF82520C2
:1035000002239846DDF820C08CF0080C5CEA0B0C16
:103510000BD150EA010301D1630706D530238DF8A2
:1035200024304FF00108A9F10109582A04D038A22B
:103530000B9208AA0A920BE03AA2F9E75B46089AB6
:10354000FCF7C6FE0B9B9B5C0A9A521E0A921370F4
:1035500050EA0102F2D10A98ADEB000000F1200B15
:10356000600702D524F4803401E04FF00109D94509
:1035700002DDA9EB0B0000E0002000EB0B01414451
:103580000890AAEB010AE00306D4DDE90F232146E7
:10359000504600F063F806444FF0000908E009A91E
:1035A00011F80900DDE90F12904709F10109761CB5
:1035B000C145F4DBE0030CD5DDE90F23214650467D
:1035C00000F04CF8064404E0DDE90F12302090478B
:1035D000761C0899481E08900029F5DC08E00A9836
:1035E0000A990078491C0A91DDE90F129047761C70
:1035F000BBF10001ABF1010BF1DC21465046DDE9E6
:103600000F2300F019F806446D1C1BE60928010081
:103610003031323334353637383961626364656648
:10362000000000003031323334353637383941420A
:1036300043444546000000002DE9F04104460025C2
:103640001E461746880404D405E039462020B047BA
:103650006D1C641EF9D52846BDE8F0812DE9F041C6
:10366000044600251E469046C80301D5302700E0D9
:103670002027880404D505E041463846B0476D1C34
:10368000641EF9D52846BDE8F081000013B5044852
:10369000052301226946FEF745FE00981CBD000087
:1036A000680200240EB5FDF727FAFFF7E5F9FFF7EA
:1036B00035F8FFF785F8FFF757F8DFF8D4900026C4
:1036C000344C4FF47A7709F5807A4FF4807B32A03E
:1036D000FFF77AFD3FA0FFF777FD4D462680208853
:1036E000C1B2295441A0FFF76FFD2088401C80B271
:1036F0002080FF28F3D94FF0080826802288012374
:103700003C48A9180297CDE90018A021FDF7FEF862
:103710002188002801F1070231D037A0FFF754FDBE
:103720002088083080B22080FF28E7D93CA0FFF72E
:103730004BFD304801230022D846A1215546CDE952
:1037400000AB0297FDF730F826802088295C3BA06B
:10375000FFF73AFD2088401C80B22080FF28F4D972
:103760004FF4FA60FCF73AFE0949424601F58070D1
:10377000FCF7F1FD50B134A0FFF726FDA7E73AA012
:10378000FFF722FD0520FCF729FEC9E73FA0F3E77C
:103790001C000024000000240D0A200D0A2A2A2AF9
:1037A0002A2A2A2A2A2A53544D3332437562654DF8
:1037B0005820493243204154323443303220457836
:1037C000616D706C652A2A2A2A2A2A2A2A2A0D0A59
:1037D000000000000D0A20493243205772697465C9
:1037E000204275666665723A0D0A0000253032582F
:1037F000200000001C0200240D0A2042797465207C
:103800002530326420746F2042797465202530326F
:1038100064205772697465204661696C65640000B4
:103820000D0A2052656164696E672066726F6D20B3
:10383000415432344330323A0D0A0000307825309A
:1038400032582020000000000D0A20415432344339
:10385000303220526561642054657374204661697A
:103860006C65640D0A0000000D0A20427974652021
:103870002530326420746F204279746520253032FF
:1038800064205772697465204F4B00000D0A204177
:10389000543234433032205265616420546573746D
:1038A000204F4B20444154410D0A0000010002000A
:1038B0000400060008000A000C0010002000400070
:1038C0008000000101010103070100000804020457
:1038D00008010101000000000102030401020304C9
:1038E0000607080904390008000000241C00000035
:1038F0000A320008203900081C000024DC06000001
:103900001A32000800000000010000001000000052
:10391000000000000090D0030090D00300000000E1
:040000050800029954
:00000001FF
