:020000040800F2
:10000000E8050024AD020008CF4A0008873A00083E
:10001000CD4A0008870500086B5400080000000066
:10002000000000000000000000000000154D000866
:10003000D909000800000000D14A0008174D000847
:10004000C7020008C7020008C7020008C70200086C
:10005000C7020008C7020008C7020008C70200085C
:10006000C7020008C7020008C70200088905000887
:1000700095050008C7020008C7020008C70200086B
:10008000C7020008C7020008C7020008C70200082C
:10009000C7020008C7020008C7020008C70200081C
:1000A000C7020008C7020008C7020008C70200080C
:1000B000C7020008C7020008C7020008953A0008F6
:1000C000893A0008C7020008C7020008C7020008F2
:1000D000C7020008C7020008C7020008C7020008DC
:1000E000C7020008C702000800000000C70200089D
:1000F000C7020008C7020008C7020008C7020008BC
:10010000C7020008C7020008C7020008C7020008AB
:10011000C7020008C7020008C7020008C70200089B
:10012000C7020008C7020008C7020008C70200088B
:10013000C7020008C7020008C7020008C70200087B
:1001400000000000000000000000000000000000AF
:10015000C7020008C7020008C7020008C70200085B
:10016000C7020008C7020008C7020008C70200084B
:10017000C7020008C7020008C7020008C70200083B
:10018000C7020008C7020008C7020008C70200082B
:10019000C7020008C7020008C7020008C70200081B
:1001A000C7020008C7020008C7020008C70200080B
:1001B000C7020008C7020008C7020008C7020008FB
:1001C000C7020008C7020008C7020008C7020008EB
:1001D000C7020008C7020008C7020008C7020008DB
:1001E000C7020008C7020008C7020008C7020008CB
:1001F000C7020008C7020008C7020008C7020008BB
:10020000C7020008C7020008C7020008C7020008AA
:10021000C7020008C7020008C7020008C70200089A
:10022000C7020008C7020008C7020008000000005B
:10023000C7020008C702000800000000C70200084B
:10024000C7020008C7020008C7020008C70200086A
:10025000C7020008C7020008C7020008C70200085A
:10026000C7020008C7020008C7020008C70200084A
:10027000C7020008C7020008C7020008000000000B
:10028000C7020008C7020008C702000800000000FB
:1002900000000000C7020008DFF80CD000F088F86A
:1002A00000480047F9540008E80500240648804744
:1002B00006480047FEE7FEE7FEE7FEE7FEE7FEE74B
:1002C000FEE7FEE7FEE7FEE7AD4D000899020008F5
:1002D0002DE9F05F0546002092469B46884606467B
:1002E000814640241BE0284641464746224600F00E
:1002F0004EF853465A46C01A914110D3114618463B
:10030000224600F035F82D1A67EB01084F462246C9
:100310000120002100F02CF817EB00094E41201EAF
:10032000A4F10104DFDC484631462A464346BDE8D5
:10033000F09FD2B201E000F8012B491EFBD27047BA
:100340000022F6E710B513460A4604461946FFF7A1
:10035000F0FF204610BD30B504460020034600E003
:100360005B1C934203D2E05CCD5C401BF8D030BDF7
:10037000202A04DB203A00FA02F100207047914065
:10038000C2F1200320FA03F3194390407047202A5A
:1003900004DB203A21FA02F00021704721FA02F32F
:1003A000D040C2F120029140084319467047000036
:1003B000064C074D06E0E06840F0010394E80700B2
:1003C00098471034AC42F6D3FFF76AFF585500083F
:1003D0007855000870B523A005F048F800F096F8AD
:1003E00020B127A005F042F8012070BD28A005F03B
:1003F0003DF82B4C002529464A1C615491B2FF2937
:10040000FAD94FF4807626490020324600F0A2F84F
:1004100020B1012523A005F029F80CE025A005F066
:1004200025F81F4932462648FFF795FF40B125A021
:1004300005F01CF8012527A005F018F8284670BD26
:100440002AA005F013F8002108464A1C605491B216
:10045000FF29FAD912490020324600F07BF826A085
:10046000EAE700000D0A4154323443303220496E2D
:10047000737065637420444D413A0D0A000000001A
:1004800049324320446576204552524F520D0A00AE
:1004900049324320446576204F4B0D0A000000008E
:1004A000000000305772697465204661696C6564AC
:1004B0000D0A00005772697465204F4B0D0A000049
:1004C0000001003052656164204661696C65640D0D
:1004D0000A0000004154323443303220576F726BAF
:1004E000204552524F520D0A0000000052656164CF
:1004F000204F4B0D0A00000041543234433032206B
:10050000576F726B204F4B0D0A00000064230248A6
:100510000522A02101F076BC1800002413B582B09A
:100520000446FFF7F3FF10B1012004B010BD012114
:10053000224603A80B46CDE900010548A02101F0A1
:10054000FFFC04460A2001F037FA2046EDE70000E0
:10055000180000242DE9F04115460F468046FFF7AC
:10056000D5FF10B10120BDE8F0810026344606E039
:1005700008EB0400395D80B2FFF7D0FF641CAC4289
:10058000F6DB3046EFE7FEE7014800F071BB000004
:1005900064000024014800F06BBB0000DC00002474
:1005A000294A016891423AD0274A1832914236D0FE
:1005B000254A3032914232D0234A483291422ED0DD
:1005C000214A603291422AD01F4A7832914226D085
:1005D0001D4A9032914222D01B4AA83291421ED02D
:1005E0001A4A91421BD0194A1832914217D0174A21
:1005F0003032914213D0154A483291420FD0134AFB
:10060000603291420BD0114A7832914207D00F4AA2
:100610009032914203D00D4AA832914211D1CAB210
:100620001823103AB2FBF3F26FF30901032A02F028
:100630000703074AD25CC26500D9091D81650846D7
:10064000704721F0FF01F9E710000240100402405A
:100650002655000830B5224A012301689142CAB2EA
:100660001BD01F4C1434A14217D01D4C2834A1427A
:1006700013D01B4C3C34A1420FD0194C5034A14232
:100680000BD0174C6434A14207D0154C7834A142EA
:1006900003D0134C8C34A1420CD11421114C083AD4
:1006A000B2FBF1F10F4A803201F01F0504EB81012A
:1006B000AB4010E00C4D1824103A0D44B2FBF4F19D
:1006C000A82D00D80831094A01F01F0402EB81016E
:1006D000064AA3408032603080E80E0030BD000042
:1006E0000854025800580258F0FBFDBF00080240B1
:1006F00010B50279531E072B2DD8174C0168A14263
:100700001BD0154C1434A14217D0134C2834A142ED
:1007100013D0114C3C34A1420FD00F4C5034A142A5
:100720000BD00D4C6434A14207D00B4C7834A1425D
:1007300003D0094C8C34A14203D10849074C443101
:1007400002E00749064C443104EB8202C0E91B2158
:1007500001219940416710BD08540258FC580258C5
:10076000FC08024010B583694FF0C074826A0146EC
:10077000002053B1B3F5005F15D072B1012A0CD03F
:10078000022A0AD0032A09D104E01AB1012A06D0AC
:10079000022A03D1C96AC90100D5012010BDC96A66
:1007A000A142FAD010BD002AF7D0012AF2D0022AC5
:1007B000F3D0032AF3D010BD2DE9F04F804E804FC7
:1007C000DFF8FC911836DFF8F8A148370468856D2A
:1007D0000AF1300ADFF8ECB14C45DFF8ECC1DFF884
:1007E000ECE16DD0B4426BD0544569D0BC4267D0C7
:1007F000DFF8D081A8F11808444561D05C455FD08E
:1008000064455DD074455BD0DFF8C481444557D062
:10081000DFF8BC8108F11808444551D0DFF8B081F9
:1008200008F1300844454BD0DFF8A48108F14808AE
:10083000444545D0DFF8988108F1600844453FD031
:10084000DFF88C8108F17808444539D0DFF88081E1
:1008500008F19008444533D0DFF8748108F1A80806
:1008600044452DD0DFF86C81444529D0DFF8648100
:1008700008F11408444523D0DFF8588108F128080E
:1008800044451DD0DFF84C8108F13C08444517D0A1
:10089000DFF8408108F15008444511D0DFF8348179
:1008A00008F1640844450BD0DFF8288108F1780886
:1008B000444505D0DFF81C8108F18C08444509D176
:1008C000D0E91948C4F80480C46E1CB1D0E91C48B2
:1008D000C4F8048004684C452ED0B4422CD0544552
:1008E0002AD0BC4228D0374E183EB44224D05C45B2
:1008F00022D0644520D074451ED0354EB4421BD062
:10090000334E1836B44217D0314E3036B44213D07D
:100910002F4E4836B4420FD02D4E6036B4420BD025
:100920002B4E7836B44207D0294E9036B44203D0CD
:10093000274EA836B44215D190F85C603F2406F0EB
:100940001F06B440AC600468256825F48025256046
:100950002EE09A600068C160BDE8F08F9960006881
:10096000C260F9E71B4EB4421BD01A4E1436B44293
:1009700017D0184E2836B44213D0164E3C36B44227
:100980000FD0144E5036B4420BD0124E6436B442DF
:1009900007D0104E7836B44203D00E4E8C36B44297
:1009A000DAD190F85C60012406F01F06B4406C6058
:1009B000046863608368402B0368CFD1C9E70000F7
:1009C0001000024088000240A0000240B80002402F
:1009D0001004024008540258704772B6FEE7000047
:1009E0002DE9F05F28B190F83510022904D080215C
:1009F00041650120BDE8F09F904C904B0168183C88
:100A000018338E4ADFF83C92A1428D4CDFF838E271
:100A10008E4FDFF83CB2DFF83CA28F4D8F4E31D0C5
:100A200091422FD099422DD0A1422BD0494529D0B7
:100A3000714527D0B94225D0DFF810C20CF1180C4F
:100A400061451FD0DFF808C2ACF1600C614519D0D8
:100A5000DFF8FCC1ACF1480C614513D0DFF8F0C100
:100A6000ACF1300C61450DD0DFF8E4C1ACF1180CED
:100A7000614507D0594505D0514503D0A94201D061
:100A8000B1422CD1DFF8B4C14FF0040880F83580B2
:100A9000ACF1180C61451DD091421BD0994219D080
:100AA000A14217D0494515D0714513D0B94211D094
:100AB0006648183081420DD065486038814209D0BF
:100AC00063484838814205D061483038814201D0BE
:100AD0005F481838086820F001000860ABE0D1F8E2
:100AE00000C02CF00E08DFF854C1C1F80080ACF152
:100AF000180C0168614527D0914225D0994223D036
:100B0000A14221D049451FD071451DD0B9421BD00B
:100B1000DFF838C10CF1180C614515D0DFF830C191
:100B2000ACF1600C61450FD0DFF824C1ACF1480C8A
:100B3000614509D0DFF818C1ACF1300C614503D034
:100B4000DFF80CC1ACF1180CD1F800C02CF0010C8E
:100B5000C1F800C0DFF8E4804FF0010C0168A8F193
:100B60001808414546D0914244D0994242D0A14212
:100B700040D049453ED071453CD0B9423AD0334A85
:100B80001832914236D0324A603A914232D0304ADD
:100B9000483A91422ED02E4A303A91422AD02C4ADD
:100BA000183A914226D0594524D0514522D0A94225
:100BB00020D0B1421ED02A4A91421BD0284A14327A
:100BC000914217D0264A2832914213D0244A3C320F
:100BD00091420FD0224A503291420BD0204A6432C7
:100BE000914207D01E4A7832914203D01C4A8C327F
:100BF000914218D1016E0A6822F480720A6090F85E
:100C00005C20816D02F01F020CFA02F24A60D0E90A
:100C100019124A60C16E31B10A6822F480720A600A
:100C2000D0E91C124A600022016D80F835C080F8BE
:100C3000342001B188470020DCE600002800024093
:100C4000580002407000024088000240A0000240AC
:100C50007004024088040240A0040240B80402402C
:100C600008540258406D704790F8350070470000F6
:100C70002DE9FC5F0446F74E0020DFF8D883009092
:100C80004FF41652F44808F11808A56DDFF8C49324
:100C9000DFF8C0A3016809F1300920680AF1480AA9
:100CA000B1FBF2F1B04201912F68D5F800C0DFF836
:100CB000ACB335D04146884232D0484530D050455B
:100CC0002ED058452CD0E5491831884228D0E34928
:100CD0003031884224D0E1494831884220D0E0496F
:100CE00088421DD0DE491831884219D0DC493031A4
:100CF000884215D0DA494831884211D0DFF860E3E4
:100D00000EF1600E70450BD0D54A7832904207D074
:100D1000D34B9033984203D0D149A83188427DD13A
:100D200094F85C20082102F01F0201FA02F23A4214
:100D30004AD0B04232D0404530D048452ED0504500
:100D40002CD058452AD0C54A1832904226D0C34AE2
:100D50003032904222D0C14A483290421ED0C04A1E
:100D600090421BD0BE4A1832904217D0BC4A303253
:100D7000904213D0BA4A483290420FD0B84A6032FB
:100D800090420BD0B64A7832904207D0B44A9032A3
:100D9000904203D0B24AA832904203D1026802F0D6
:100DA000040202E0026802F008026AB1026822F05E
:100DB0000402026094F85C0000F01F008140A9600A
:100DC000606D40F00100606594F85C00012100F066
:100DD0001F008140394240D02068B04234D04045A5
:100DE00032D0484530D050452ED058452CD09B4A63
:100DF0001832904228D0994A3032904224D0974AF3
:100E00004832904220D0964A90421DD0944A1832DF
:100E1000904219D0924A3032904200E0AFE113D0B4
:100E20008F4A483290420FD08D4A603290420BD0A8
:100E30008B4A7832904207D0894A9032904203D050
:100E4000874AA83290427DD1406910F0800F04D0CB
:100E5000A960606D40F00200606594F85C000421B8
:100E600000F01F00814039423ED02068B04232D0AD
:100E7000404530D048452ED050452CD058452AD03A
:100E8000764A1832904226D0744A3032904222D0AC
:100E9000724A483290421ED0714A90421BD0704A2A
:100EA0001832904217D06E4A3032904213D06C4ABA
:100EB000483290420FD06A4A603290420BD0684A62
:100EC0007832904207D0664A9032904203D0644A0A
:100ED000A83290424ED1006810F0020F04D0A960F1
:100EE000606D40F00400606594F85C00102100F033
:100EF0001F008140394258D02068B04234D040456C
:100F000032D0484530D050452ED058452CD0534A89
:100F10001832904228D0514A3032904224D04F4A61
:100F20004832904220D04E4A90421DD04C4A18324E
:100F3000904219D04A4A3032904215D0484A48323D
:100F4000904200E014E00FD0454A603290420BD04E
:100F5000434A7832904207D0414A9032904203D0BF
:100F60003F4AA832904207D1006800F0080006E02E
:100F7000006872E70068B7E7006800F00400A0B1FD
:100F8000A96020680168490304D50068000308D5FA
:100F9000A16C07E00168C90503D4016821F00801CC
:100FA0000160216C09B12046884794F85C0020213B
:100FB00000F01F008140394279D02068B04232D021
:100FC000404530D048452ED050452CD058452AD0E9
:100FD000224A1832904226D0204A3032904222D003
:100FE0001E4A483290421ED01D4A90421BD01C4AD5
:100FF0001832904217D01A4A3032904213D0184A11
:10100000483290420FD0164A603290420BD0144AB8
:101010007832904207D0124A9032904203D0104A60
:10102000A832904203D1006800F0100002E000688E
:1010300000F00200B0B3A96094F8350004282068DD
:1010400001680FD049037ED5006800032BD4616C82
:101050002AE000001000024000000024700002405E
:101060001004024021F0160101602068416921F05E
:1010700080014161206C08B9A06C20B12068016832
:1010800021F00801016094F85C303F21012003F059
:101090001F0300229940A96084F8350084F83420A9
:1010A000216D65E003E0E16B09B120468847606D82
:1010B00000287DD0606DC00759D02068042184F8D5
:1010C0003510B0422BD0404529D0484527D0504557
:1010D00025D0584523D09D49884220D09B491831BE
:1010E00088421CD099493031884218D098498842AA
:1010F00015D097491831884211D09549303188422E
:101100000DD093494831884209D0914960318842D5
:1011100005D08F497831884201D08D4990310168DE
:1011200021F00101016020680099019A491C009199
:10113000914202D80168C907F6D10068C00710D0F3
:1011400003200FE0FFE70168C905ACD40368012163
:10115000002223F01003036084F8351084F8342053
:10116000A1E7012084F83500002084F83400E16C08
:1011700000291DD002B02046BDE8F05F0847754940
:1011800088421DD073491431884219D071492831E1
:10119000884215D06F493C31884211D06D49503199
:1011A00088420DD06B496431884209D0694900E01A
:1011B00084E07831884203D066498C3188427DD101
:1011C00094F85C800427016808F01F0807FA08F704
:1011D00017EA0C0F009746D04F0744D500980F042C
:1011E000686003D5C8033CD4A16CC1E7880638D435
:1011F0002068B0422DD055496039884229D04845F1
:1012000027D0504525D0584523D05049884220D07A
:101210004E49183188421CD04C493031884218D090
:101220004B49884215D04A491831884211D0484963
:10123000303188420DD046494831884209D0704546
:1012400007D0904205D0984203D04149A831884246
:1012500003D1016821F0080102E0016821F00401D6
:101260000160216C84E7022707FA08F717EA0C0FE0
:1012700000974ED08F074CD500980F04686003D5B7
:10128000C80344D4616C73E7880640D42068B04238
:101290002FD02E49603988422BD0484529D050455F
:1012A00027D0584525D02949884222D027491831CE
:1012B00088421ED025493031884200E044E018D0F1
:1012C0002349884215D022491831884211D020493B
:1012D000303188420DD01E494831884209D07045CE
:1012E00007D0904205D0984203D01949A8318842CE
:1012F00003D1016821F0140102E0016821F00A0124
:101300000160012184F83510002084F83400E16B7D
:101310002EE7082202FA08F212EA0C0F14D009078D
:1013200012D5016821F00E01016094F85C100120D3
:10133000002201F01F0100FA01F16960606584F884
:10134000350084F8342012E7BDE8FC9F8800024095
:1013500010040240085402582DE9F05F044600F0E2
:1013600059FC002C07467DD0E34E022120684FF047
:101370000308DFF888934FF00005DFF884A3B0423C
:10138000DFF880B334D0DC4A1832904230D0484580
:101390002ED050452CD058452AD0DA4A18329042E7
:1013A00026D0D84A3032904222D0D64A4832904293
:1013B0001ED0D54A90421BD0D34A1832904217D043
:1013C000D14A3032904213D0CF4A483290420FD0A7
:1013D000CD4A603290420BD0CB4A7832904207D04F
:1013E000C94A9032904203D0C74AA83290427DD178
:1013F00084F83510B04284F834502ED0BE491831EC
:1014000088422AD0484528D0504526D0584524D077
:10141000BC491831884220D0BA49303188421CD0AA
:10142000B8494831884218D0B749884215D0B649E2
:101430001831884211D0B449303188420DD0B249B8
:101440004831884209D0B0496031884205D0AE4960
:101450007831884201D0AC499031016821F0010116
:10146000016008E027E100BF00F0D4FBC01B0528A5
:1014700001D920211CE120680068C007F4D104F1E3
:1014800008002168D4E9053C8E4685C809681043E8
:10149000D4E907281F43636A38439C4F40EA0C0095
:1014A0001043394040EA0800042B40EA010003D110
:1014B000D4E90B1211430843954909686FF30F01F2
:1014C000B1F1005F0FD36168A1F12902052A08D9A3
:1014D000163A032A05D9083A012A02D94F390329B5
:1014E00001D840F48010CEF8000000E023E020682E
:1014F000676A4069042F20F0070047EA00070DD112
:10150000D4E90A01074349B12046FFF72BF928B176
:1015100040206065012184F83510CCE020684761E7
:101520002046FFF73DF894F85C203F2102F01F02AF
:101530009140816054E0774A90421BD0754B143340
:10154000984217D0734B2833984213D0714B3C33D9
:1015500098420FD06F4B503398420BD06D4B643391
:10156000984207D06B4B7833984203D0694B8C3349
:1015700098427DD184F8351084F83450664B016868
:10158000A26801EA030E402A73D0802A72D000229A
:10159000D4E90378D4E9053142EAD70242EAD8080F
:1015A0005C4AD4E9077C48EAD30848EAD10141EA19
:1015B000D701524241EA1C11142341EA0E01016095
:1015C00020681044B0FBF3F08000E0652046FEF791
:1015D000E7FF94F85C20012102F01F029140416076
:1015E0002068B04257D044491831884253D048450A
:1015F00051D050454FD058454DD0424918318842BE
:1016000049D040493031884245D03E49483188422E
:1016100041D03D4988423ED03B49183188423AD0BA
:1016200039493031884236D037494831884232D042
:101630003549603188422ED03349783188422AD0EA
:1016400031499031884226D02F49A831884222D092
:10165000304988421FD02F49143188421BD02D4970
:101660002831884217D02B493C31884213D002E000
:101670001DE017E018E02749503188420BD025497A
:101680006431884207D023497831884203D0214908
:101690008C31884229D12046FEF7DCFFA0688028E3
:1016A0000CD00CE0102273E74FF4804270E7402129
:1016B000616584F835800120BDE8F09F6560216E8A
:1016C00020790860D4E9190141606068401E07284C
:1016D00008D82046FFF70CF8E06E0560D4E91C013D
:1016E000416002E0E566256765670120656584F86D
:1016F00035000020E0E700001000024040000240FA
:101700005800024070000240100402403F8010FE6A
:101710000010005C085402580F00FEFF2DE9F84F3E
:1017200004008C464FF00000009014D094F8340070
:10173000012812D094F835500120002184F834009B
:10174000012D0CD0C00260650120009084F8341097
:101750000098BDE8F88F0120FBE70220F9E78C4DE7
:101760000226206884F83560A8428A4D61658A4E59
:101770008A4FDFF82C82DFF82C92DFF82CA2DFF8FA
:101780002CB226D0A84224D0B04222D0B84220D0D9
:1017900040451ED048451CD050451AD0584518D059
:1017A0008349884215D082491831884211D0804936
:1017B000303188420DD07E494831884209D07C4979
:1017C0006031884205D07A497831884201D0784921
:1017D0009031016821F00101016061462046FEF769
:1017E000EBFF6B49206888422CD0A8422AD0B04237
:1017F00028D0B84226D0404524D0484522D0504574
:1018000020D058451ED06A4A90421BD0684A1832F0
:10181000904217D0664A3032904213D0644A483220
:1018200090420FD0624A603290420BD0604A7832C8
:10183000904207D05E4A9032904203D05C4AA83270
:1018400090420CD1026822F01E0242F016020260A1
:10185000206C88B12068026842F008020BE0026840
:1018600022F00E0242F00A020260206C20B12068D1
:10187000026842F004020260206888424BD0A8420D
:1018800049D0B04247D0B84245D0404543D0484502
:1018900041D050453FD058453DD0454A90423AD07E
:1018A000434A1832904236D0414A3032904232D0C8
:1018B0003F4A483290422ED03D4A603290422AD070
:1018C0003B4A7832904226D0394A9032904222D018
:1018D000374AA83290421ED0364A90421BD0354A31
:1018E0001432904217D0334A2832904213D0314AF2
:1018F0003C3290420FD02F4A503290420BD02D4AAA
:101900006432904207D02B4A7832904203D0294A61
:101910008C3290420DD1206E0268D20303D502684A
:1019200042F480720260E06E18B1026842F4807284
:1019300002602068884226D0A84224D0B04222D03B
:10194000B84220D040451ED048451CD050451AD042
:10195000584518D01649884215D015491831884283
:1019600011D01349303188420DD011494831884295
:1019700009D00F496031884205D00D49783188423D
:1019800001D00B499031016841F001010160DFE6AF
:10199000100002402800024040000240580002406F
:1019A0007000024088000240A0000240B8000240DF
:1019B000100402400854025870B5044600F02AF999
:1019C0000546601C02D004480078044400F022F967
:1019D000401BA042FAD370BD080000242DE9F84F47
:1019E00003247D4D00234FF001094FF0B04B4FF021
:1019F0000F0AE9E009FA03F73A4076D00E7906F0CB
:101A00000306012E01D0022E18D1D0F808C04FEAEB
:101A1000430ECE6804FA0EF82CEA080C06FA0EF60D
:101A200046EA0C068660D0F804C00E792CEA070C52
:101A3000C6F300169E4046EA0C0646600E79F64351
:101A4000B6070BD0C6684FEA43088F6804FA08FC53
:101A500026EA0C0607FA08F73743C7600E7906F046
:101A60000306022E12D1DE080F694FEA437C00EB19
:101A70008606B646366A4FEADC6C0AFA0CF807FAB4
:101A80000CF726EA08063743CEF820700F7906686F
:101A90004FEA430807F0030704FA08FC07FA08F7BF
:101AA00026EA0C06374307604E6816F4403F1CD008
:101AB0004A4E376847F00207376036689F0706F0DE
:101AC0000206009623F0030606F1B046B6463F0F25
:101AD000D6F80864DFF808810AFA07FC404526EAD0
:101AE0000C0603D14FF0000C41E06CE0DFF8F4C0CD
:101AF000604502D14FF0010C39E0DFF8ECC06045E1
:101B000002D14FF0020C32E0DFF8E0C0604502D1B4
:101B10004FF0030C2BE0DFF8D8C0604502D14FF046
:101B2000040C24E0DFF8CCC0604502D14FF0050C76
:101B30001DE0DFF8C4C0604502D14FF0060C16E08E
:101B4000DFF8B8C0604502D14FF0070C0FE0DFF8B6
:101B5000B0C0604502D14FF0080C08E0DFF8A4C027
:101B6000604502D14FF0090C01E04FF00A0C0CFA6D
:101B700007FC4CEA060CCEF808C44F68DBF800609E
:101B8000FF0226EA020600D516435F46CBF8006046
:101B9000D1F804C0DBF804605FEA8C2C26EA020668
:101BA00000D516437E606E684F6826EA0206BF03C2
:101BB00000D516436E602E684F6826EA0206FF03C2
:101BC00000D516432E605B1C0A6832FA03F67FF4D8
:101BD00011AFBDE8F88F000080000058F4440258AF
:101BE000000002580004025800080258000C025875
:101BF000001002580014025800180258001C025825
:101C0000002002580024025801480068000C704768
:101C10000010005C01488068704700000800002444
:101C200030B590F84120202A24D190F84020012A94
:101C300020D0012380F84030242280F84120202346
:101C400000240268156825F0010515600268156812
:101C500025F480551560026815680D43156001680C
:101C60000A6842F001020A6080F8413080F8404082
:101C7000002030BD022030BD30B590F84120202A30
:101C800022D190F84020012A1ED0012380F8403054
:101C9000242280F84120202400250268136823F0C4
:101CA000010313600268136823F4706343EA01219F
:101CB000116001680A6842F001020A6080F8414040
:101CC00080F84050002030BD022030BD7047704782
:101CD00030B403689A691968D243D40509D4CC4357
:101CE000240606D4456C4FF4807445F00105456424
:101CF000DC6153050AD4CB431B0607D4446C4FF474
:101D0000806344F0080444640468E36192050AD4E3
:101D1000C943090607D4426C4FF4007142F0020235
:101D200042640268D161416C11F00B0F02D030BCEB
:101D300002F050B830BC70470268436B916912687A
:101D4000002B00D0184770477047000070B50400A2
:101D500004D094F84100002510B106E0012070BDC8
:101D6000204684F8405000F07FF9242084F8410098
:101D70002068016821F001010160D4E9001020F021
:101D8000706008612068816821F400418160E0682A
:101D900021680128A06806D040F404408860E0680B
:101DA000022803D006E040F40040F7E721684FF432
:101DB0000060486020212068114A43681343436053
:101DC0002068C26822F40042C26054F8106B0DCC47
:101DD000104340EA0320F06054F81C3CD4E90002B0
:101DE0001043186054F81C0D026842F001020260B2
:101DF000656484F84110256384F84250002070BD6A
:101E0000008000022DE9FC47002604461F4692464A
:101E10000196894690F8410020287AD1206880698F
:101E2000C04300047FD594F8400001287BD00121F5
:101E300084F8401024204FF0200884F841006664A4
:101E4000E068012810D029F4544040F42050216863
:101E50004860FFF7DFFE0546206881698269C1F3AB
:101E60004010C2F3001114E03049314A49EA010040
:101E70001040ECE7781C05D0FFF7CCFE401BB842C1
:101E800019D8C7B1206882698169C2F34010C1F3D3
:101E900000110843EED0206880693B464FF00002F5
:101EA0004FF02001C0430095C006204616D502F031
:101EB00012FD60BB08E084F84180606C84F84060EB
:101EC00040F02000606422E02168C1F81C8084F8A2
:101ED0004180002084F84060BDE8FC8702F0FBFCF4
:101EE000A8B921681020C8612168C1F81C80019838
:101EF000504512D12068416841F480414160002280
:101F00003B4620212046009502F0E5FC10B101205F
:101F1000E2E708E02168C1F81C800198401C0190AC
:101F200050458DD3C7E70220D6E70000002000020D
:101F3000FF230002704770477047704770470000EA
:101F40002DE9FC47044690F8410098469146DDE9AA
:101F50000A768A4620287DD11FB316B3206880698F
:101F6000C043000476D594F84000012872D00120C7
:101F700084F840002434FFF74DFE002521226277CB
:101F80004021354A2760A1772562E680A260E28879
:101F900032492161243CFF2A06D9FF214FF0807687
:101FA00005E04FF400702FE0618D4FF00076218541
:101FB0001921CDE9001043464A465146204602F019
:101FC00091FA10B184F840501FE0A06B4FF0200848
:101FD000F0B12349C163A16B2248C8643946A06BA4
:101FE0000564A06B05652268238DA06B2832FFF77E
:101FF00095FBA8B184F8418084F84250606C40F0B1
:10200000100000BF84F8405060640120BDE8FC87E8
:1020100084F8418084F84250606C40F08000F1E721
:102020000095334694F828205146204602F026FCBD
:10203000608D218D401A60851021204684F8405023
:1020400001F038FE2068016841F480410160002001
:10205000DCE7FFE70220D9E70000FFFFD5430008D7
:10206000013C0008B53A00082DE9F041B6B007463A
:1020700014212FA8FEF764F9BC216846FEF760F929
:1020800035493868884264D10820009000246846A9
:10209000209400F091FA08B1FEF79FFC2F480168E8
:1020A00041F00201016000682FAB122100F0020034
:1020B00034904FF44070042283E8130028482FA97D
:1020C000CDE93242FFF78AFC24480830016841F428
:1020D0000011016000682222224E4023224900F4B0
:1020E00000104FF480683490304686E81E01746119
:1020F000B461F46134627462FFF72EF908B1FEF73F
:102100006CFC184D212218497835BE631831B7632D
:10211000284685E81600C5E903486C61AC61EC61AE
:102120002C626C62FFF718F908B1FEF756FCFD63EC
:1021300000220121AF631F2000F08CF81F2000F067
:102140007BF800220121202000F084F8202000F0FC
:1021500073F836B0BDE8F08100540040E044025806
:1021600000040258640000241000024070477047C9
:102170000248816802781144816070470800002499
:10218000032010B500F086F800F0F4FF0F4A104964
:1021900014681368C4F3032203F00F038A5CC95C5C
:1021A00002F01F0201F01F01D0400A4A20FA01F19B
:1021B0001160094908600F2000F010F808B10120F3
:1021C00010BD00F02BF8002010BD0000184402588C
:1021D00016550008040000240000002470B50D4DC1
:1021E00004462878A0B14FF47A71B1FBF0F00A49A7
:1021F0000968B1FBF0F001F0F1FA48B9102C07D2F0
:1022000000222146501E00F025F800206C6070BDB1
:10221000012070BD0800002400000024054808B516
:10222000016841F002010160006800F002000090C6
:1022300008BD0000F4440258002809DB410900F001
:102240001F028900012001F1E0219040C1F8000146
:10225000704700000E4BF0B41B680D46C3F3022319
:10226000C3F10706042E00D90426191D072901D23F
:10227000002300E0DB1E012404FA06F19C40491E05
:102280002940641E994014402143F0BC03F0F6B885
:102290000CED00E0064900F0070210B54FF6FF0410
:1022A0000868044B204040EA02201843086010BD33
:1022B0000CED00E00000FA05134970B50A68D2433E
:1022C000520705D5096801F00701814213D118E0D2
:1022D0000A6822F0070202430A60FFF79BFC0A4DDE
:1022E0004FF47A760446083D07E000BFFFF792FC02
:1022F000001BB04201D9012070BD2868C043800492
:10230000F4D4002070BD00000C48025810B500F055
:10231000EBFE05490968054AC1F30211515C01F061
:102320001F01C84010BD0000204402581655000887
:10233000494930B5484C0B1D0A68143409681D68BA
:10234000246802F00303C5F30012C1F30531C4F39E
:10235000CC04002914FB02F200EE102AF8EE400A29
:1023600075D03F4A9FED3D1AB7EE000A6BB1DFED25
:102370003D1A012B01D0022B64D002EE101A116815
:10238000F8EE422A81EEA22A21E0334C283C236851
:102390009B0612D5344B246801EE901A1168C4F3E1
:1023A000C104F8EE612AE34001EE903AC1F308015E
:1023B000F8EE611A81EEA22A0BE001EE901ADFED31
:1023C0002B2A00BFF8EE611A116882EEA12AC1F330
:1023D000080101EE901A1168F8EE611A40EE811AB8
:1023E00071EE800A62EE200AC1F3462101EE101A56
:1023F000B8EE411A31EE001AC0EE811ABCEEE11AB5
:1024000080ED001A1168C1F3064101EE101AB8EE12
:10241000411A31EE001AC0EE811ABCEEE11A80EDCD
:10242000011A1168C1F3066101EE101AB8EE411AE3
:1024300031EE000A80EE801ABCEEC10A80ED020A7D
:1024400030BD04E001EE901ADFED092ABAE7002161
:10245000016041608160F3E72844025800000039C0
:10246000384402580024744A0090D0030024744C6D
:1024700020BCBE4B494930B5484C0B1D0A681C3482
:1024800009681D68246802F00303C5F30022C1F344
:102490000551C4F3CC04002914FB02F200EE102A0B
:1024A000F8EE400A75D03F4A9FED3D1AB7EE000A9C
:1024B0006BB1DFED3D1A012B01D0022B64D002EE8F
:1024C000101A1168F8EE422A81EEA22A21E0334C5C
:1024D000283C23689B0612D5344B246801EE901AE1
:1024E0001168C4F3C104F8EE612AE34001EE903AAA
:1024F000C1F30801F8EE611A81EEA22A0BE001EEA9
:10250000901ADFED2B2A00BFF8EE611A116882EEF7
:10251000A12AC1F3080101EE901A1168F8EE611AC0
:1025200040EE811A71EE800A62EE200AC1F3462164
:1025300001EE101AB8EE411A31EE001AC0EE811AFF
:10254000BCEEE11A80ED001A1168C1F3064101EEFC
:10255000101AB8EE411A31EE001AC0EE811ABCEE24
:10256000E11A80ED011A1168C1F3066101EE101A3B
:10257000B8EE411A31EE000A80EE801ABCEEC10AB4
:1025800080ED020A30BD04E001EE901ADFED092A69
:10259000BAE70021016041608160F3E728440258F6
:1025A00000000039404402580024744A0090D003CF
:1025B0000024744C20BCBE4B2DE9FC5F044650F84F
:1025C000241B002500902E460801FE4FDFF8F883FB
:1025D0001DD5606E50B1B0F5801F0CD0B0F5001F56
:1025E0000ED0B0F5401F1DD001250FE0386840F433
:1025F0000030386016E00221201D02F06BFA03E083
:102600000098022102F0F6FA05000BD02E46208831
:10261000C00523D5606D05281ED2DFE800F00C113F
:10262000161B1B00626ED8F8001021F440111143F4
:10263000C8F80010EBE7386840F40030386009E073
:102640000021201D02F046FA03E00098002102F06C
:10265000D1FA05466DB100E001252E46208880059F
:1026600028D5A06D80281ED00CDC90B140280ED15A
:1026700014E0626DD8F8001021F007011143C8F88A
:102680000010EBE7C02813D0B0F5807F10D00125F3
:102690000FE0386840F40030386009E00021201D68
:1026A00002F018FA03E00098002102F0A3FA0546B0
:1026B00095B12E462088DFF81093400509F10809EE
:1026C0002CD5D4F8A400B0F5800F20D00DDCA0B13B
:1026D000B0F5001F0FD115E0A26DD8F8001021F45D
:1026E000E0711143C8F80010E4E7B0F5C00F13D053
:1026F000B0F5000F10D001250FE0386840F400302D
:10270000386009E00021201D02F0E4F903E00098A0
:10271000002102F06FFA054675B12E4620880005AB
:102720002DD5D4F8A800B0F1007F21D00EDCA8B1DF
:10273000B0F1807F10D116E0D4F8A420D9F80010B1
:1027400021F460011143C9F80010E7E7B0F1407FC0
:1027500013D0B0F1806F10D001250FE0386840F43D
:102760000030386009E00021201D02F0B3F903E0D9
:102770000098002102F03EFA05466DB12E46206811
:1027800080011FD5A06CD8B110280FD0202812D0FE
:10279000302815D0012514E0D4F8A820D9F800106D
:1027A00021F0E0611143C9F80010E8E7386840F40F
:1027B0000030386004E00221201D02F08BF905464C
:1027C0006DB12E462088C0042BD5E06DB0F5005FBA
:1027D00020D00DDCA0B1B0F5805F0FD115E07A48B4
:1027E000A26C001F016821F0300111430160E9E78C
:1027F000B0F5405F13D0B0F5804F10D001250FE049
:10280000386840F40030386009E00021201D02F0F3
:1028100061F903E00098002102F0ECF9054685B16A
:102820002E462088800429D5206EB0F5403F23D065
:1028300010DC08B3B0F5803F14D0B0F5003F0FD1E5
:1028400015E0E26DD8F8001021F4E0411143C8F81A
:102850000010E6E7B0F5802F0ED0B0F5A02F0BD01A
:1028600001250AE00121201D02F034F903E000985F
:10287000012102F0BFF905468DB12E4620884004A3
:102880002AD5D4F8AC00B0F1405F23D010DC08B3F7
:10289000B0F1805F14D0B0F1005F0FD115E0226E6F
:1028A000D8F8001021F4E0211143C8F80010E5E742
:1028B000B0F1804F0ED0B0F1A04F0BD001250AE04F
:1028C0000121201D02F006F903E00098012102F029
:1028D00091F905466DB12E46208800041FD5E06EA3
:1028E000D8B1B0F1805F0ED0B0F1005F10D00125FB
:1028F00014E0D4F8AC20D9F8001021F0E0411143E5
:10290000C9F80010E8E7386840F40030386004E0A7
:102910000121201D02F0DEF805466DB12E4620682B
:10292000C0011ED5606CD0B101280ED0022811D094
:10293000032814D0012513E0E26ED8F8001021F02E
:1029400040511143C8F80010E9E7386840F40030FE
:10295000386004E00221201D02F0BCF8054685B174
:102960002E462068DFF85CB04002ABF11C0B57D557
:102970001648016841F480710160FFF74BF9824607
:102980000EE01148626C001F016821F00301114341
:102990000160E6E7FFF73EF9A0EB0A0064283DD8A6
:1029A0000A480068C005F5D57DBBDFF81CA0B4F867
:1029B000B0200AF1200ADAF8001002F4407001F4A5
:1029C000407105E02C440258504402580048025817
:1029D000814211D0DAF80010DAF8002021F44071B9
:1029E00042F48032CAF80020DAF8002022F4803263
:1029F000CAF80020CAF80010D4F8B000B0F5807F03
:102A000021D1FFF707F9019019E008E0FFF702F97B
:102A10000199411A41F28830814210D903252E468E
:102A20002078DFF844A4C0073DD0A06F182838D024
:102A300026DC80B3082829D0102825D12CE0DAF82C
:102A400000008007E2D5D4F8B010C1F301200328BC
:102A500058460DD0016821F47C510160B4F8B020D3
:102A6000DAF80010C2F30B021143CAF80010D7E7DE
:102A7000FE4A036802EA111223F47C511143ECE789
:102A800020280ED028280CD001250BE00121201D84
:102A900002F020F804E004E00098012102F0AAF816
:102AA00005465DB12E46207880071ED5606F06284A
:102AB00019D2DFE800F0160C11161616A26FDAF81C
:102AC000001021F038011143CAF80010EBE7012192
:102AD000201D01F0FFFF03E00098012102F08AF8B9
:102AE000054675B100E001252E46207840071FD528
:102AF000D4F89000062819D2DFE800F0160C111661
:102B00001616626FDAF8001021F007011143CAF8B7
:102B10000010EAE70121201D01F0DCFF03E000982E
:102B2000012102F067F805469DB100E001252E461F
:102B3000207880062BD5D4F88C00B0F1405F24D0EB
:102B400011DC10B3B0F1805F15D0B0F1005F10D18F
:102B500016E0D4F89020D9F8001021F007011143B5
:102B6000C9F80010E4E7B0F1804F0ED0B0F1A04FEB
:102B70000BD001250AE00021201D01F0ABFF03E08E
:102B80000098022102F036F805468DB12E462078D5
:102B900040062BD5D4F89800B0F5406F24D011DC56
:102BA00010B3B0F5806F15D0B0F5006F10D116E0FE
:102BB000D4F88C20DAF8001021F0E0411143CAF873
:102BC0000010E4E7B0F5805F0ED0B0F5A05F0BD049
:102BD00001250AE00021201D01F07CFF03E00098A0
:102BE000022102F007F805468DB12E462078000636
:102BF0002BD5D4F89C00B0F5C04F24D011DC10B315
:102C0000B0F5005F15D0B0F5804F10D116E0D4F8C4
:102C10009820D9F8001021F4E0511143C9F80010B0
:102C2000E4E7B0F5004F0ED0B0F5204F0BD00125F2
:102C30000AE00021201D01F04DFF03E00098022171
:102C400001F0D8FF05464DB12E46207800071ED56D
:102C5000D4F88000B0F5805F0AD00FE0D4F89C2053
:102C6000D9F8001021F460411143C9F80010ECE7D5
:102C70000098022101F0BEFF00B10126D4F88020A7
:102C8000DAF8001021F440511143CAF800102078FE
:102C9000C00613D5D4F89400B0F5807F05D1009814
:102CA000022101F0A7FF00B10126D4F89420D9F841
:102CB000001021F440711143C9F80010206800038E
:102CC00016D5D4F8A00038B1B0F5803F09D0B0F5E2
:102CD000003F0BD001250AE00021201D01F0FAFE83
:102CE00003E00098022101F085FF054685B12E46DC
:102CF0002068400322D5D4F88400B0F5801F11D09D
:102D0000B0F5001F13D0B0F5401F15D0012514E019
:102D1000D4F8A020D9F8001021F440311143C9F8AB
:102D20000010E5E7386840F40030386004E00098AF
:102D3000012101F05FFF054655B12E462068C00312
:102D40001CD5E06C70B1B0F5803F10D0012514E0C7
:102D5000D4F88420DAF8001021F440111143CAF8A5
:102D60000010EBE7386840F40030386004E00221DE
:102D7000201D01F0AFFE0546CDB12E462068800033
:102D800005D50098022101F035FF00B10126206829
:102D900080031BD5E06FB8B1B0F5807F10D0B0F5DF
:102DA000007F11D0B0F5407F0ED001250DE02E48F8
:102DB000E26C0838016821F4803111430160DDE7DD
:102DC000386840F400303860F5B32E462068C00201
:102DD00007D5226FD8F8001021F000411143C8F840
:102DE00000102068C00008D5D4F8B420DBF800102B
:102DF00021F480411143CBF800102068800207D5F0
:102E0000A26ED8F8001021F080711143C8F80010AC
:102E1000206840000CD5DBF8001021F40041CBF80D
:102E20000010DBF80010D4F8B8201143CBF80010E4
:102E30002068002807DA0C48226D0838016821F064
:102E400040511143016000E014E02068000208D501
:102E5000D4F88820DAF8001021F440011143CAF8B0
:102E6000001086B1012003E054440258CFFFFF0058
:102E7000BDE8FC9FE26FDAF8001021F440711143C5
:102E8000CAF80010A2E70020EDE700002DE9F05F8E
:102E900004000F467ED0DFF83882D8F8000000F03A
:102EA0000F00B8420CD2D8F8001021F00F013943BE
:102EB000C8F80010D8F8000000F00F00B84269D13F
:102EC0002078844D40070AD52069296801F07001F7
:102ED000884204D9296821F07001014329602078D3
:102EE0007C4E361D00070AD56069316801F070011B
:102EF000884204D9316821F07001014331602078A3
:102F0000C0060AD5A069316801F4E061884204D99D
:102F1000316821F4E061014331602078DFF8B4B119
:102F200080060BF1080B0CD5E1695846DBF8002050
:102F300002F07002914204D9026822F070020A4342
:102F40000260207880070AD5E068296801F00F0147
:102F5000884204D9296821F00F01014329602078B3
:102F6000C0073ED05B49A2682868183920F4706019
:102F7000104328606068022818D0032819D0096817
:102F8000012819D0490700294ADADFF848A1AAF137
:102F9000080A00E044E0DAF8002022F007020243C9
:102FA000CAF80020FEF736FE814612E00968890360
:102FB000E9E709688901E6E7C905E4E7FEF72AFEC3
:102FC000A0EB090141F28830814202D90320BDE81B
:102FD000F09F6168DAF8000000F03800B0EBC10F34
:102FE000ECD1207880070AD5E068296801F00F014C
:102FF000884204D2296821F00F0101432960D8F8E2
:103000000010404601F00F01B9420BD9016821F0D0
:103010000F0139430160006800F00F00B84201D091
:103020000120D4E7207840070AD52069296801F0FB
:103030007001884204D2296821F07001014329609F
:10304000207800070AD56069316801F07001884274
:1030500004D2316821F07001014331602078C0064C
:103060000AD5A069316801F4E061884204D2316870
:1030700021F4E06101433160207880060CD5E169DC
:103080005846DBF8002002F07002914204D2026838
:1030900022F070020A43026000F06CF80E492A68C0
:1030A0002B68C2F3032203F00F038A5CC95C02F0B1
:1030B0001F0201F01F01D040084A20FA01F11160FF
:1030C0000749086007480068BDE8F05FFFF786B869
:1030D000002000521844025816550008040000242D
:1030E000000000240C00002430B500F043F80B4A27
:1030F0000B490C4B15681468C5F3032204F00F0448
:103100008A5C095D02F01F0201F01F01D040064AEF
:1031100020FA01F119601060084630BD18440258C9
:1031200016550008040000240000002400B5FFF735
:10313000DBFF05490968054AC1F30211515C01F042
:103140001F01C84000BD00001C440258165500086D
:1031500000B5FFF7C9FF05490968054AC1F3022117
:10316000515C01F01F01C84000BD00001C44025822
:1031700016550008454970B545480968434B103B52
:1031800011F0380208D00111082A03D0102A0BD000
:10319000182A0BD0084670BD19688906FBD5196836
:1031A000C1F3C101C84070BD3A4870BD3749374DC1
:1031B00018310C1D24350A68096826682D6802F04C
:1031C000030406F00102C1F30511C5F3CC0515FB9C
:1031D00002F200EE102AB8EE400AE9B32F4ADFED02
:1031E0002E0AB7EE001A6CB1DFED2D1A012C01D0BA
:1031F000022C43D002EE101A1068F8EE422A81EE3B
:10320000A22A1EE01C68A40611D51B6801EE901AC4
:103210001168C3F3C103F8EE612AD84001EE900AA9
:10322000C1F30800F8EE611A81EEA22A0BE001EE6C
:10323000901ADFED1C2A00BFF8EE611A106882EECA
:10324000A12AC0F3080001EE900AF8EE611A40EEE0
:10325000201A31EE810A00E015E022EE000A106823
:10326000C0F34620401C00EE900AF8EE600A80EEA3
:10327000201ABCEEC10A10EE100A70BD01EE901AC1
:10328000DFED092AD8E7002070BD00001044025885
:103290000090D00340787D0100000039304402588E
:1032A0000024744A0024744C20BCBE4B2DE9F05F0E
:1032B00004007DD0FF4F2078FE4D1837DFF8F493DF
:1032C000103DC00748D0D9F80000396800F0380038
:1032D000102815D0182803D101F0030002280FD0C0
:1032E0006068B0F5803F12D010B1B0F5A02F18D0B3
:1032F000286820F480302860286820F4802009E0C5
:103300002868800328D560680028D2D024E0286887
:1033100040F480302860606888B1FEF77BFC064688
:1033200009E0286840F480202860F0E7FEF772FC8E
:10333000801B64286FD828688003F7D50CE0FEF75F
:1033400069FC064605E000BFFEF764FC801B6428AC
:10335000F0D828688003F7D4207841F20308D54ECE
:103360000C3E800769D5D9F80000396810F03800A4
:103370000ED0182801D188070AD0E06890B32968D8
:1033800021F0190101432960FEF744FC824631E037
:103390002868400702D5E06800288AD0E1682868DC
:1033A00020F0190008432860FEF734FC824607E04D
:1033B000DFE000BFFEF72EFCA0EB0A000228B9D820
:1033C00028684007F6D500BFFEF71EFC40451BD815
:1033D0002069402812D0316821F47C3141EA003064
:1033E00030602AE018E000BFFEF714FCA0EB0A00F2
:1033F00002289FD828684007F6D5E5E7306820F412
:103400007C3040F40030EBE7207C316821F0FE4155
:1034100041EA0060E4E70DE1286820F0010028603F
:10342000FEF7F8FB824605E0FEF7F4FBA0EB0A008E
:1034300002288DD828684007F6D42078C0065DD5CC
:10344000D9F80000DFF86CB2396800F03800ABF151
:10345000040B082810D0182803D101F0030001281C
:103460000AD0E0690028286838D040F08000286041
:10347000FEF7D0FB824623E02868C00523D5E0692B
:10348000802876D11FE0206A202821D0316821F0E1
:10349000F84141EA8060306030E000BF94F82010CD
:1034A000DBF8002022F07C5242EA0161CBF80010E8
:1034B00024E000BFFEF7AEFBA0EB0A00022898D87C
:1034C0002868C005F6D5FEF79FFB4045E6D8DAE749
:1034D000306820F0F84040F08040DCE720F08000C9
:1034E0002860FEF797FB064605E000BFFEF792FB5B
:1034F000801B02289DD82868C005F7D420780007D3
:1035000029D56C486169643000298046016811D072
:1035100041F001010160FEF77DFB064605E000BFBA
:10352000FEF778FB801B0228C9D8D8F80000800776
:10353000F6D510E021F001010160FEF76BFB0646B5
:1035400005E000BFFEF766FB801B022872D8D8F8A2
:1035500000008007F6D42078800623D5A0690028D3
:10356000286810D040F480502860FEF753FB0646D0
:1035700005E02CE1FEF74EFB801B02285AD8286894
:103580008004F7D50EE020F480502860FEF742FB5F
:10359000064604E0FEF73EFB801B02284AD8286856
:1035A0008004F7D4207840074FD5DFF80C81D8F895
:1035B000001041F48071C8F80010FEF72BFB06469E
:1035C00005E000BFFEF726FB801B642832D8D8F840
:1035D0000000C005F6D5374EA068603601280AD035
:1035E00008B1052813D0306820F001003060306841
:1035F00020F0040002E0306840F001003060A06874
:1036000041F2883A90B1FEF705FB80460AE0306847
:1036100040F004003060EEE7FEF7FCFAA0EB080192
:10362000514507D830688007F6D50EE0FEF7F2FA6C
:10363000804607E084E000BFFEF7ECFAA0EB08014B
:1036400051457DD830688007F6D4606AB0B3DFF8A2
:103650006480D9F8001008F12008C1F3C2010329E1
:103660006FD00228286820F08070286003D0FEF711
:10367000D1FA044680E0FEF7CDFA064605E000BF29
:10368000FEF7C8FA801B022873D828688001F7D497
:10369000E26A40F2F331386854F8283F884340EA40
:1036A000021018433860217B4FF4FE0C22894FF042
:1036B000FE4704E0104402580048025889E0208A7E
:1036C0004902521E267DA1F5007189B2401EC2F347
:1036D00008021143761E0CEA004001433E4807EA07
:1036E000066211433C4AC8F800100832016821F014
:1036F0000101016011684FF6F876236AB14341EA8F
:10370000C30111600168A26921F00C01114301603D
:103710000168E26921F0020111430160016841F48E
:1037200080310160016841F400310160016841F4B9
:1037300080210160016841F001010160286801E019
:1037400017E01DE040F080702860FEF763FA044641
:1037500005E000BFFEF75EFA001B022809D82868C2
:103760008001F7D535E000BFFEF754FA001B0228B0
:1037700002D90320BDE8F09F28688001F4D428E036
:1037800039680128D8F8000021D0A26A01F00303AB
:1037900093421CD1E26AC1F305118A4217D1216B11
:1037A000C0F30802491E8A4211D1616BC0F3462260
:1037B000491E91420BD1A16BC0F30642491E9142B2
:1037C00005D1E16BC0F30660491E814201D00120A2
:1037D000D0E70020CEE700002C440258401EB0F194
:1037E000807F10B501D3012010BD4FF0E02460614F
:1037F0000F21601701F042FE0020A0610721216126
:1038000010BD30B590F88010012918D0012280F841
:1038100080202421C0F884100022202450F8641B4A
:103820000B680D6823F0005325F001050D60026060
:1038300050F8641C0B6004620277104630BD022011
:1038400030BD70B5044690F8800001281DD00122DB
:1038500084F880202420C4F8840020680568026869
:1038600022F0010202602068826822F060620A434E
:103870008260204601F008FB2268202100201560AC
:10388000C4F8841084F8800070BD022070BD70B54B
:10389000044690F8800001281DD0012284F8802081
:1038A0002420C4F8840020680568026822F0010220
:1038B00002602068826822F060420A4382602046EB
:1038C00001F0E2FA2268202100201560C4F884107B
:1038D00084F8800070BD022070BD10B5040003D0D4
:1038E000D4F8840010B107E0012010BD002084F856
:1038F0008000204600F026F82420C4F884002068C8
:10390000016821F001010160204601F073FB0128EC
:10391000EBD0A06A10B1204601F0D8FA20684168C7
:1039200021F4904141602068816821F02A01816082
:103930002068016841F0010101602046BDE81040A7
:1039400001F028BB10B5B6B0044614212FA8FCF72F
:10395000F7FCBC216846FCF7F3FC18492068884254
:1039600029D104200090002468462494FEF724FE08
:1039700008B1FDF732F81248016841F00801016012
:10398000006800F0080034900D481438016841F0D8
:103990000101016000682FAB022100F001003490AA
:1039A0004FF4C060032283E8130006482FA9CDE935
:1039B0003242FEF713F836B010BD0000000C00587C
:1039C000F4440258000002582DE9F8430446D0F8A8
:1039D00084001F4616460D46202852D1DDB1D6B1CF
:1039E00094F8800001284CD0012084F88000212226
:1039F0004FF00008C4F88C80C4F884201834FEF717
:103A000009F9814654F8100CA687E687183CB0F5F2
:103A1000805F03D004E00120BDE8F883206920B175
:103A20002E46002584F8808010E00026FAE78021E9
:103A3000204601F0B5FCB8B9C6B116F8010B2168F3
:103A40008862B4F85600401EA4F85600B4F8560038
:103A50004B464FF0000200970028E8D14FF040019C
:103A6000204601F09DFC38B10320D5E735F8020B64
:103A70002168C0F30800E3E72020C4F88400002098
:103A8000CAE70220C8E7FEE70148FEF721B90000B7
:103A9000180000240148FEF74FB900001800002468
:103AA000806B0021826B02B11165C26B02B111659E
:103AB00000F0FCBE2DE9F05F846B00254C4B4C4EB2
:103AC0004B4F1833DFF828C13036DFF824B14837C0
:103AD000474A0CF1600CDFF81CE10BF1780BDFF8C2
:103AE0001891DFF818A1A16BE9B30968914237D0AA
:103AF000994235D0B14233D0B94231D061452FD04F
:103B000059452DD0DFF8E88008F19008414527D0CD
:103B1000DFF8DC8008F1A808414521D0DFF8D48027
:103B2000A8F1300841451BD0DFF8C880A8F118087B
:103B3000414515D0714513D0494511D051450FD09D
:103B4000DFF8B88008F11808414509D0DFF8AC80EB
:103B500008F13008414503D0DFF8A08008F148089B
:103B6000496801B90125E16B79B30968914229D00F
:103B7000994227D0B14225D0B94223D0614521D006
:103B800059451FD01A4A903291421BD0184AA83288
:103B9000914217D0174A303A914213D0154A183A39
:103BA00091420FD071450DD049450BD0514509D0F8
:103BB000124A1832914205D0104A3032914201D057
:103BC0000E4A4832496801B90125FDF74BF8022831
:103BD0000CD0002D0AD02068416841F400414160BA
:103BE0002046BDE8F05F102100F0F4B8BDE8F09F7A
:103BF0001000024040040240580402407004024099
:103C000010B5846B2068016821F480410160608DEB
:103C100040B1218D628D606AFF2A0144616203D93F
:103C2000FF2002E020210FE0608D2085226883B212
:103C3000A06B2832FDF772FD28B12046BDE8104088
:103C4000102100F0C7B840212046BDE8104000F028
:103C500031B8CA074FF028034FF0000210B506D064
:103C600090F84140422233EA040400D0F2228C074B
:103C700007D590F8414042F04402A34301D042F0FE
:103C8000B0020B0401D542F0B802102904D020295B
:103C900005D0402906D007E042F0900204E042F04F
:103CA000200201E042F04002006801689143016097
:103CB00010BD000010B5174C0022436BA34202D088
:103CC000154CA34212D10B0400D5B822102904D000
:103CD000202905D0402906D017E042F0900214E0D8
:103CE00042F0600211E042F040020EE00B0400D509
:103CF000B822CB0701D042F0F2028B0701D542F087
:103D0000F402202901D142F0200200680168114329
:103D1000016010BDD54300084945000801688A6963
:103D2000D243920701D400228A6200688169C943A4
:103D3000C90703D0816941F00101816170472DE914
:103D4000F047044690F841002822002508218243CC
:103D5000206804D0C16184F84050BDE8F0878769CD
:103D600086694FF0FE088268D0F80CC04FF4004915
:103D7000E36808EA16460CF0FE08022BC7F300477A
:103D8000C2F3090207D049462046FFF762FF3246D8
:103D900084F8405010E0062306F0060603EAD2132A
:103DA0009E420ED1A36C5B1CA364A36C022BD4D1E6
:103DB000A564C16184F8405039462046FDF787FF6D
:103DC000CBE749462046FFF744FF424684F840507F
:103DD000F2E7000070B53A4A044690F84100002529
:103DE00084F84250E2626585626C282842EA01024A
:103DF00062641FD029281DD02A281BD048F2030155
:103E00002046FFF726FF94F84100602802D02020CA
:103E100084F841006563A16B206B2A4E19B111280B
:103E200012D0212810D0E16BF1B3122824D022281F
:103E300022D03EE003212046FFF70BFF2249282035
:103E4000616384F84100E6E720680168490403D50E
:103E5000016821F480410160A06BFCF705FF012897
:103E600027D0A06B066584F84050A06BFCF7B8FD26
:103E7000002823D0A06B16E020680168090403D550
:103E8000016821F400410160E06BFCF7EDFE0128C0
:103E90000FD0E06B066584F84050E06BFCF7A0FDA6
:103EA00000280BD0E06B00E003E0016DBDE870403E
:103EB00008472046BDE8704000F0F8BC70BD000027
:103EC0000000FFFFA13A00085D47000870B50446F6
:103ED000164AC843002541074FF02000E2622563DF
:103EE00084F8410084F84250656311D42068616A07
:103EF000406A0870606A401C6062208D40B1618D2C
:103F0000401E2085491E6185606C40F0040060649D
:103F100048F203012046FFF79CFE21681020C8618B
:103F2000204684F84050FEF705F870BD0000FFFF02
:103F3000F8B50446006820260D46C66194F8410095
:103F4000212804D094F84100222806D00BE001215A
:103F50002046FFF77EFE112004E002212046FFF7F5
:103F600078FE122020632068E9432C4B00255FEA8D
:103F7000C16C42682A4F02EA03024260E76265634D
:103F800006D422681020D061606C40F004006064A8
:103F900094F84100602805D1480703D42068406A9E
:103FA000C0B200902046FFF7B9FE606C94F8411053
:103FB000602900D028B1616C2046BDE8F840FFF7C9
:103FC00009BF94F84100212812D094F8410022281A
:103FD0000DD184F84160256394F8420084F8425082
:103FE0004028204684F8405014D0FDF7A4FFF8BDC7
:103FF00084F84160256394F8420084F842504028D8
:10400000204684F8405002D0FDF796FFF8BDFDF73A
:1040100095FFF8BDFDF791FFF8BD000000E800FE38
:104020000000FFFF70B504460025202084F84250B0
:1040300094F8411021290ED0122184F84100216307
:10404000022120466563FFF704FE204684F84050B5
:10405000FDF771FF70BD112184F84100216301213A
:1040600020466563FFF7F5FD204684F84050FDF7D4
:1040700063FF70BD2DE9F05F0268202604461768D3
:1040800090F841000D46D661212806D0292804D099
:10409000222809D02A2807D00DE048F20101204645
:1040A000FFF7D7FD212005E048F202012046FFF787
:1040B000D0FD2220206320685649426842F4004225
:1040C0004260206842680A4042602046FFF726FEB0
:1040D000F8435149514ADFF84CC14304504B524F09
:1040E000DFF84891DFF848A1DFF848B1DFF848E190
:1040F0000BD42068D0F8008028F48048C0F80080F5
:10410000A06B0CE04068608534E0000432D4206885
:10411000D0F8008028F40048C0F80080E06B48B375
:1041200000688842EED09042ECD09842EAD06045D8
:10413000E8D0B842E6D04845E4D05045E2D05845F2
:10414000E0D07045DED03C4918318842DAD03A4997
:1041500030318842D6D0384948318842D2D03649A9
:1041600060318842CED0344978318842CAD0324951
:104170009031C7E7E84340070FD4206825F00405D5
:10418000616A406A0870606A401C6062218D21B1DA
:10419000608D491E2185401E6085608D18B1606C60
:1041A00040F004006064002784F84270606C67632C
:1041B00068B1616C2046FFF70DFE94F84100282895
:1041C00015D129462046BDE8F05FFFF77FBEE06AC3
:1041D0001A4DA8420DD0204600F032F8E56284F86E
:1041E00041602763204684F84070FDF7A3FEBDE8D8
:1041F000F09F94F8410084F841602228276320460C
:1042000084F8407002D0FDF7B2FFF0E7FDF7AEFF93
:10421000EDE7000000E800FE100002402800024028
:1042200040000240580002407000024088000240F6
:10423000A0000240B8000240100402400000FFFF4E
:1042400070B5044600680025016884F84250C943EF
:104250004A0403D4016821F4804104E0090403D432
:10426000016821F40041016094F8411028202929B7
:1042700011D094F841102A290CD1222184F8410050
:10428000216302212046FFF7E4FC204684F84050D9
:10429000FDF76CFF70BD212184F8410021630121ED
:1042A0002046FFF7D6FC204684F84050FDF75FFF1C
:1042B00070BD00002DE9F047044600688A464FF0C3
:1042C000000917464FF020084D464E468169C90641
:1042D00048D51021C16136E0BAF1FF3F33D0FDF778
:1042E00099FCC01B504502D8BAF1000F2BD12068B1
:1042F000426894F84210836902F48042DB431B0455
:104300001CD4B2F5804F19D0202917D0416841F450
:1043100080414160FDF77EFC07460FE0FDF77AFC27
:10432000C01B19280AD9626C012542F02002626480
:1043300084F8418084F8429084F840902068806935
:10434000C0438006EAD420688069C043800602D555
:10435000002DC1D003E015B92168C1F81C800125EA
:1043600046F0040621688869C20505D54FF48072BD
:10437000CA6146F00106012541050AD5216880057C
:104380004FF4806246F00806CA614FF0010502D47E
:104390000AE0800507D5216801254FF4007046F03A
:1043A0000206C86100E085B12046FFF7B7FC21682E
:1043B000074F4A683A404A60616C3143616484F84F
:1043C000418084F8429084F840902846BDE8F08708
:1043D00000E800FEF8B5044690F8400001281AD025
:1043E000CB43012584F84050DE064FF000056FEA0C
:1043F000020012D4C20610D421681020C861606C7B
:1044000040F00400606420212046FFF753FC204662
:10441000FFF784FC60E00220F8BD314A1E0639D463
:10442000460637D42068016821F040010160608DA4
:10443000002820682AD04168608DFF28C1F3090157
:1044400004D9FF2020854FF0807308E0608DE36A77
:104450002085934201D0E36A01E04FF0007300959C
:1044600094F82820204600F009FA608D218D401A2A
:10447000608594F8410022282068016803D041F447
:104480008041016028E041F40041FAE74068800182
:1044900017D505E05E0618D4460616D4608D20B107
:1044A00040212046FFF796FC16E02068416889010C
:1044B00012D4E16A914204D1416841F480414160E3
:1044C0000AE02046FFF7AEFD06E09A0604D4800617
:1044D00002D42046FFF72CFD002084F84050F8BDA0
:1044E0000000FFFF2DE9F8430446164817461E4614
:1044F000DAB20090C3022046DDE9089800F0BEF968
:1045000042464946204600F013FAB8B9012EFDB2E2
:1045100008D02068390A816242464946204600F0A8
:1045200007FA58B920688562002280214B46204650
:10453000CDF8008000F0CFF9002800D00120BDE8C0
:10454000F8830000002000802DE9F74F90F840101C
:104550000446C56A4FF0000901296DD001986FEA41
:104560000206C743012084F84000B90605D4B0060E
:1045700003D401992046FFF77DFDF8067ED4F006AE
:104580007CD470044FF0100101D5300477D46E4B09
:104590006D4FDFF8B4C118336B4A3037DFF8ACA188
:1045A0000CF1480CDFF8A8B1DFF8A8E1E06BE0B34C
:1045B0005FEA064845D4006890423AD0984238D025
:1045C000B84236D0604534D0504532D0584530D00E
:1045D00070452ED0DFF87C8108F11808404528D0BE
:1045E000DFF87481404524D0DFF86C8108F11808A9
:1045F00040451ED0DFF8608108F13008404518D0F2
:10460000DFF8548108F14808404512D0DFF84881AE
:1046100008F1600840450CD0DFF83C8108F17808CB
:10462000404506D0DFF8308101E00AE004E008F1FF
:104630009008406818B104E00220BDE8FE8F4FF0FA
:104640000109A06B90B3760430D4006890422BD05F
:10465000984229D0B84227D0604525D0504523D074
:10466000584521D070451FD03A4A183290421BD08D
:10467000394A904218D0384A183201E057E053E0E6
:10468000904211D0344A303290420DD0324A4832F2
:10469000904209D0304A6032904205D02E4A78329A
:1046A000904201D02C4A9032406810B1B9F1000F0D
:1046B0001CD094F84100282802D1B5F1007F04D025
:1046C00094F84100292805D02EE001992046FFF7F3
:1046D000FDFB34E015F5803F26D02068C1612046FF
:1046E000FFF71CFB2046FFF7ABFD28E02068C16107
:1046F000606C40F00400606494F8410015B1B5F1BD
:10470000807F1CD1212806D0292804D0222804D05B
:104710002A2802D003E0212000E022202063616CDF
:104720002046FFF757FB0AE02068C16107E0380721
:1047300005D4300703D401992046FFF700FB002081
:1047400084F8400079E70000100002407000024049
:1047500088000240A0000240100402402DE9F04110
:10476000044690F840008846E56A012826D06FEAA2
:104770000807012084F84000B9066FEA020605D454
:10478000B00603D441462046FFF774FC3A49F806C8
:104790004FF0807231D4F0062FD4638D102083B196
:1047A0002168C861606C40F0040060640DB19542FE
:1047B0005ED1616C2046FFF70DFB59E00220BDE899
:1047C000F08194F84120282A02D1B5F1007F04D06D
:1047D00094F84120292A05D00CE041462046FFF7F5
:1047E00075FB45E08D4205D02168C8612046FFF782
:1047F00095FA3AE02168C8613AE0780715D4700765
:1048000013D4608D60B12068626A406A1070606A7B
:10481000401C6062208D401E2085608D401E60859A
:10482000608D28BB8D4220D122E0380706D43007A6
:1048300004D441462046FFF782FA19E0B80717D49E
:10484000B00715D4608D68B1606A2168007888620D
:10485000606A401C6062608D401E6085208D401E35
:10486000208505E0954200D015B92046FFF7E8FC09
:10487000002084F84000A2E70000FFFF70B5006848
:10488000C1F3090141EA0241074D049C19434FF469
:1048900080664268214306EA54532B439A4321F031
:1048A00000410A43426070BDFF63FF0310B590F8FA
:1048B00041200021602A05D0016380F84010FDF7F7
:1048C00043FA10BD202280F84120016380F8401097
:1048D000FDF7FCF910BD2DE9F0411D4617460E46C7
:1048E0000446DDF8188008E0681C06D0FDF792F950
:1048F000A0EB0800A8420BD855B12068806936EAC1
:10490000000013D00020B842EED00020BDE8F081B6
:10491000626C002084F84000202142F02002626492
:1049200084F8411084F842000120EFE70120EAE713
:1049300070B516460D4604460FE03246294620461D
:10494000FFF7B8FC08B1012070BD681C05D0FDF769
:1049500061F9801BA84207D835B120688069C0433F
:104960008007EAD4002070BD626C002084F840000B
:10497000202142F02002626484F8411084F8420051
:10498000E1E700000D4808B5016841F00101016050
:1049900000680022022100F0010000900B20FDF7CA
:1049A00059FC0B20FDF748FC00220C201146FDF7B6
:1049B00051FCBDE808400C20FDF73EBCD84402582D
:1049C000114808B5016841F004010160016801F077
:1049D00004010091016841F080010160016801F06B
:1049E00080010091016841F001010160016801F05E
:1049F00001010091016841F002010160006800F0CE
:104A00000200009008BD0000E04402581348002155
:104A100010B5114C0123124A0460C0E90121C0E91C
:104A2000033141618161C1610162FDF78FF908B114
:104A3000FBF7D3FF09480021FDF7F2F808B1FBF7B7
:104A4000CCFF06480021FDF717F9002803D0BDE888
:104A50001040FBF7C2BF10BD0054004018000024F6
:104A6000380F30001848002110B5164C0C224FF4B6
:104A7000E1330460C0E90131C160C0E90412816121
:104A80000162416281624166FEF727FF08B1FBF7D0
:104A9000A4FF0D480021FEF7FAFE08B1FBF79DFFC9
:104AA00009480021FEF7CDFE08B1FBF796FF064846
:104AB000FEF7A7FE002803D0BDE81040FBF78DBF2E
:104AC00010BD0000000C005854010024FEE7FEE772
:104AD000704700002DE9F047454D044689464FF0E8
:104AE000000A2868C04380070AD0414E283E30683B
:104AF00020F080603060FDF78DF80746B04608E092
:104B00000120BDE8F08700BFFDF784F8C01B022834
:104B100067D8D8F800000001F6D4206829684FF45F
:104B2000FE0721F47C313E0241EA00302860207A01
:104B3000A389B4F804C040022D4D2D495B1E227C90
:104B4000ACF1010C1035091DA0F5007080B2521EA9
:104B5000CCF3080C07EA034340EA0C00184306EACA
:104B60000262104328600868626920F0C0001043A8
:104B700008600A68A06922F0200202430A60281D2A
:104B80000A6822F010020A6002684FF6F873E469BE
:104B90009A4342EAC40202600868B9F1000F40F08B
:104BA00010020A6011D00868B9F1010F11D040F469
:104BB00000100860D8F80000444640F08060C8F853
:104BC0000000FDF727F805460DE0086840F40020D6
:104BD000EFE740F48010ECE7FDF71CF8401B0228DB
:104BE00001D903208DE720680001F5D5504688E7FC
:104BF000284402582DE9F047454D044689464FF0B8
:104C0000000A2868C04380070AD0414E283E306819
:104C100020F080503060FCF7FDFF0746B04608E00A
:104C20000120BDE8F08700BFFCF7F4FFC01B02289D
:104C300067D8D8F800008000F6D4208829684FF49F
:104C4000FE0721F07C713E0241EA00502860207A84
:104C5000A389B4F804C040022D4D2D495B1E227C6F
:104C6000ACF1010C1835091DA0F5007080B2521E80
:104C7000CCF3080C07EA034340EA0C00184306EAA9
:104C80000262104328600868626920F440601043A3
:104C900008600A68A06922F4007202430A60281DB5
:104CA0000A6822F480720A6002684FF6F873E469B9
:104CB0009A4342EAC40202600868B9F1000F40F466
:104CC00080720A6011D00868B9F1010F11D040F06C
:104CD00080700860D8F80000444640F08050C8F862
:104CE0000000FCF797FF05460DE0086840F48000DF
:104CF000EFE740F40000ECE7FCF78CFF401B0228D4
:104D000001D903208DE720688000F5D5504688E75B
:104D1000284402587047FDF72BBA000030B59DB00B
:104D20004C216846FBF70CFB202113A8FBF708FB7E
:104D30000220FDF7C1FA1B490A681B4822F0010254
:104D40000A600968016821F4404141F48041016032
:104D50000168002501F440411B9101688904FCD5DC
:104D6000402409950220009001216846CDE90314F2
:104D7000FEF79CFA08B172B6FEE73F20CDE91305B5
:104D80004FF480611595CDE9165413A81A94CDE916
:104D900018410121FEF77AF8002801D072B6FEE72B
:104DA0001DB030BD2C040058184802582C48F0B5EE
:104DB0002C4A016841F470010160106800F00F0096
:104DC000072804D2106820F00F00C01D106026498B
:104DD0000020254C10340B68244D43F001030B6078
:104DE00020600B682B400B60136803F00F03072B48
:104DF00004D9136823F00F03DB1D13601A4C1C4AFF
:104E000018341C4B261D371D2060174C1A4D2834B2
:104E10003060261D3860371D23603B1D35601C1D2A
:104E20003A60251D2E1D1860331D226028603260F7
:104E300018600A680C4B114C22F4802260330A601F
:104E4000186020686FF30F00B0F1005F03D20C49C7
:104E50000120C1F8080143F2D2000A490860F0BD00
:104E600088ED00E000200052004402587FEDF6EA91
:104E700080020101000202020000FF010010005C3C
:104E8000008000510040005230B5416EB9B1016858
:104E90000D4B03F108048A688968C2F34262490F26
:104EA0005D5C615C2D01B5FBF1F1A0F86A10995CC5
:104EB000A25C0901B1FBF2F1A0F8681030BD01213C
:104EC000A0F86A10F8E700004655000890F828108E
:104ED000C90706D00168C36A4A6822F400321A433F
:104EE0004A6090F82810890706D50168036B4A6864
:104EF00022F480321A434A6090F82810490706D5F8
:104F00000168436B4A6822F480221A434A6090F891
:104F10002810090706D50168836B4A6822F400420D
:104F20001A434A6090F82810C90606D50168C36B79
:104F30008A6822F480521A438A6090F82810890601
:104F400006D50168036C8A6822F400521A438A600D
:104F500090F82810490611D50168436C4A6822F47C
:104F600080121A434A60416CB1F5801F06D1016876
:104F7000836C4A6822F4C0021A434A6090F82810F1
:104F8000090606D50168C26C486820F40020104369
:104F900048607047F8B500260446C0F88C60FCF7FE
:104FA00039FE054620686FF07E470068000708D587
:104FB00000222B464FF400112046009700F0F0F934
:104FC00060B92068006840070AD500222B464FF4DC
:104FD00080012046009700F0E3F908B10320F8BDF6
:104FE0002020C4F88400C4F88800E666002084F815
:104FF0008060F8BD2DE9F04304468068D84E87B044
:10500000D84B2168D4E90427D4F81CC010430A689F
:10501000002547EA0C073843324002430A60206803
:10502000E268416821F44051114341602268A1695E
:105030009A4201D0206A01439768DFF82CC3CB4E17
:10504000CB4807EA0C070F4397602168676ACA6A72
:1050500022F00F023A43CA622268B2420ED10068BF
:1050600000F03800182873D047DCB8B3082879D08E
:1050700010286FD178E028287ED17BE0BD498A4294
:1050800009D1006800F00700062875D2DFE800F0BB
:10509000546A6C6E7072B8498A4209D1006800F097
:1050A0000700062868D2DFE800F0475D5F616365AE
:1050B000B2498A4209D1006800F0070006285BD295
:1050C000DFE800F03A5052545658AD498A420BD1AD
:1050D000006800F0070006284ED200E010E0DFE88C
:1050E00000F02B4143454749A6498A420AD100684E
:1050F00000F03800182839D0B7DD2028BBD13CE0BB
:1051000001203AE0A0498A4209D1006800F0070076
:10511000062831D2DFE800F01026282A2C2E9B49E1
:105120008A420BD1006800F00700062824D2DFE88D
:1051300000F003191B1D1F2100201EE09A421BD105
:105140008B48001D006800F00700062814D202E01A
:105150000CE007E010E0DFE800F0030507090B0DA5
:1051600002200AE0042008E0082006E0102004E005
:10517000202002E0402000E080208549DFF81482F2
:105180009A42854A4FF400434FEA21174FF0000638
:105190004ED110281AD006DC022809D004280BD0E2
:1051A00008287CD10DE020283ED0402877D13DE072
:1051B000FDF7ACF8014610E06846FDF7B9F8019933
:1051C0000BE003A8FDF756F9049906E01068800685
:1051D00005D51068C0F3C100C140002970D0606AD5
:1051E000676838F8102007EB4703B1FBF2F0834201
:1051F00055D8B0EB073F52D8002308461946FBF7B5
:1052000067F802467808130E120243EA01211018CB
:105210003A4671410023FBF75BF8604AA0F5407104
:1052200091423CD821688FE03946D8E71946D6E745
:10523000D4F81CC04FF6EF799C4546D1082819D008
:1052400005DC58B101280CD0042875D10DE01028D8
:1052500015D0202835D040286ED134E0FDF766FF08
:1052600001E0FDF775FF014610E06846FDF760F8C4
:1052700001990BE003A8FDF7FDF8049906E010681A
:10528000800604D51068C0F3C100C140C1B1636A93
:10529000606838F81330B1FBF3F1490000E04BE0EF
:1052A00001EB5001B1FBF0F0A0F11001494543D8EA
:1052B0004FF6F0732168C0F342021840104343E0F8
:1052C00043E03946E3E71946E1E7082819D005DC51
:1052D00058B101280CD004282ED10DE0102815D08B
:1052E00020282BD0402827D12AE0FDF71FFF01E01E
:1052F000FDF72EFF014610E06846FDF719F8019909
:105300000BE003A8FDF7B6F8049906E010688006E4
:1053100004D51068C0F3C100C140B1B1636A6068D0
:1053200038F81330B1FBF3F101EB5001B1FBF0F0B1
:10533000A0F11001494505D9012506E03946EDE700
:105340001946EBE7216880B2C8600120A4F86A0022
:10535000A4F8680028462667666707B0BDE8F083B2
:10536000F369FFCF000C0058FFF4FF11001001405B
:10537000544402580044004000480040004C0040A3
:10538000005000400014014000780040007C0040C4
:105390000090D0032E55000800440258FFFC0F0077
:1053A0002DE9F0479A4617460E460446089D4FF0F1
:1053B00000094FF020084CE0681C4AD0FCF72AFC9A
:1053C000A0EB0A00A8422AD84DB32068016849071B
:1053D0003FD5C069C04300053BD421684FF400604D
:1053E0000862216851E8000F20F4D07041E8000203
:1053F000002AF6D12068083050E8001F21F0010192
:1054000040E80012002AF5D1C4F8848084F8809026
:10541000C4F88880C4F88C800320BDE8F087206839
:1054200050E8001F21F4D07140E80012002AF6D1A4
:105430002068083050E8001F21F0010140E8001208
:10544000002AF5D1C4F8848084F88090C4F888805C
:10545000E2E72068C06936EA000004D00020B842C4
:10546000AAD00020D9E70120F9E7FEE7014A024966
:1054700000F024B8E15400081400002409070028B3
:105480004FEA116104DB00F1E02080F8001470475E
:1054900000F00F0000F1E02080F8141D704702E0DA
:1054A00008C8121F08C1002AFAD1704770470020AF
:1054B00001E001C1121F002AFBD170472DE9F04124
:1054C00016460F460446002503E03946B047641CE3
:1054D0006D1C20780028F8D12846BDE8F081000036
:1054E00013B50448052301226946FEF76DFA0098BA
:1054F0001CBD000054010024FCF742FEFFF70EFC27
:10550000FFF75EFAFFF7AEFAFFF73CFAFFF77EFA15
:10551000FAF760FFFEE70000000001020304010249
:1055200003040607080900061016000610160100FD
:1055300002000400060008000A000C001000200011
:105540004000800000010101010307010000080480
:105550000204080101010000785500080000002441
:10556000180000009E540008905500081800002400
:10557000D0050000AE5400080090D0030090D00386
:10558000010000001000000000000000000000000A
:020000043000CA
:1000000000000000000000000000000000000000F0
:1000100000000000000000000000000000000000E0
:1000200000000000000000000000000000000000D0
:1000300000000000000000000000000000000000C0
:1000400000000000000000000000000000000000B0
:1000500000000000000000000000000000000000A0
:100060000000000000000000000000000000000090
:100070000000000000000000000000000000000080
:100080000000000000000000000000000000000070
:100090000000000000000000000000000000000060
:1000A0000000000000000000000000000000000050
:1000B0000000000000000000000000000000000040
:1000C0000000000000000000000000000000000030
:1000D0000000000000000000000000000000000020
:1000E0000000000000000000000000000000000010
:1000F0000000000000000000000000000000000000
:020000043000CA
:1001000000000000000000000000000000000000EF
:1001100000000000000000000000000000000000DF
:1001200000000000000000000000000000000000CF
:1001300000000000000000000000000000000000BF
:1001400000000000000000000000000000000000AF
:10015000000000000000000000000000000000009F
:10016000000000000000000000000000000000008F
:10017000000000000000000000000000000000007F
:10018000000000000000000000000000000000006F
:10019000000000000000000000000000000000005F
:1001A000000000000000000000000000000000004F
:1001B000000000000000000000000000000000003F
:1001C000000000000000000000000000000000002F
:1001D000000000000000000000000000000000001F
:1001E000000000000000000000000000000000000F
:1001F00000000000000000000000000000000000FF
:040000050800029954
:00000001FF
